:04000000E5EF01F037
:10000800FACF19F0FBCF1AF0E9CF1BF0EACF1CF0BA
:10001800E1CF1DF0E2CF1EF0D9CF1FF0DACF20F0EC
:10002800F3CF21F0F4CF22F0F6CF23F0F7CF24F06E
:10003800F8CF25F0F5CF26F0D8CF61F00001000108
:10004800606FE0CF62F0EACF63F0E9CF64F0F2AA24
:1000580001D001D081D1F2A401D001D07DD100011D
:1000680000016505D8A401D001D009D01B0EFC6E93
:10007800186E000E00010001656F185000D06FC0A7
:10008800EAFF000EE96E60C0EEFF61C0EEFF62C0DD
:10009800EEFFFCCFEEFF63C0EEFF64C0EEFFE2CFE1
:1000A800EEFFE1CFEEFFDACFEEFFD9CFEEFFF4CFD0
:1000B800EEFFF3CFEEFFF8CFEEFFF7CFEEFFF6CF70
:1000C800EEFFF5CFEEFFFBCFEEFFFACFEEFF000E0F
:1000D800E26E000EE16EE6CFEEFFE6CFEEFFE6CF72
:1000E800EEFFE6CFEEFFE6CFEEFFE6CFEEFFE6CF80
:1000F800EEFFE6CFEEFFE6CFEEFFE6CFEEFFE6CF70
:10010800EEFFE6CFEEFFE6CFEEFFE6CFEEFFE6CF5F
:10011800EEFFE6CFEEFFE6CFEEFFE6CFEEFFE6CF4F
:10012800EEFFE6CFEEFFE6CFEEFFE6CFEEFFE6CF3F
:10013800EEFFE6CFEEFFE6CFEEFFE6CFEEFFE6CF2F
:10014800EEFFE6CFEEFFE6CFEEFFE6CFEEFFE6CF1F
:10015800EEFFE6CFEEFFE6CFEEFFE6CFEEFFE6CF0F
:10016800EEFFE6CFEEFFE6CFEEFFE6CFEEFFE6CFFF
:10017800EEFFE6CFEEFFE6CFEEFFE6CFEEFFE6CFEF
:10018800EEFFE6CFEEFFE6CFEEFFE6CFEEFFE6CFDF
:10019800EEFFE6CFEEFF8A0ED76ECF0ED66EF29444
:1001A800010E00010001812500010001816F000E90
:1001B8000001000182210001826F000E0001000190
:1001C80083210001836F000E0001000184210001DA
:1001D800846F00010001714B722B00010001702B2C
:1001E800000100017051060AD8A401D001D007D03F
:1001F800186E000E00010001706F185000D0000149
:1002080000017051010D0001690EF324D96E00013F
:10021800000EF420DA6EDF50000100016F6F000E4F
:10022800E26E000EE16E6FC0EAFF120EE96EEECFCD
:10023800E6FFEECFE6FFEECFE6FFEECFE6FFEECF2E
:10024800E6FFEECFE6FFEECFE6FFEECFE6FFEECF1E
:10025800E6FFEECFE6FFEECFE6FFEECFE6FFEECF0E
:10026800E6FFEECFE6FFEECFE6FFEECFE6FFEECFFE
:10027800E6FFEECFE6FFEECFE6FFEECFE6FFEECFEE
:10028800E6FFEECFE6FFEECFE6FFEECFE6FFEECFDE
:10029800E6FFEECFE6FFEECFE6FFEECFE6FFEECFCE
:1002A800E6FFEECFE6FFEECFE6FFEECFE6FFEECFBE
:1002B800E6FFEECFE6FFEECFE6FFEECFE6FFEECFAE
:1002C800E6FFEECFE6FFEECFE6FFEECFE6FFEECF9E
:1002D800E6FFEECFE6FFEECFE6FFEECFE6FFEECF8E
:1002E800E6FFEECFE6FFEECFE6FFEECFE6FF6FC00C
:1002F800EAFF000EE96EEECF60F0EECF61F0EECFD0
:1003080062F0EECFFCFFEECF63F0EECF64F0EECFFD
:10031800E2FFEECFE1FFEECFDAFFEECFD9FFEECF6F
:10032800F4FFEECFF3FFEECFF8FFEECFF7FFEECFFF
:10033800F6FFEECFF5FFEECFFBFFEECFFAFF64C07E
:10034800E9FF63C0EAFF62C0E0FF000100016051FD
:1003580061C0D8FF100000D064C0E9FF63C0EAFFA5
:1003680062C0E0FF00010001605161C0D8FF1000C9
:1003780011EC08F0B7EC0DF05FEC0EF00EEC0CF0A1
:1003880007EC0BF001EC12F026C0F5FF25C0F8FFD2
:1003980024C0F7FF23C0F6FF22C0F4FF21C0F3FFFB
:1003A80020C0DAFF1FC0D9FF1EC0E2FF1DC0E1FF59
:1003B8001CC0EAFF1BC0E9FF1AC0FBFF19C0FAFF07
:0603C8001100FDEF12F030
:1010000043686F63206C6F6E673A0056697465734E
:1010100073653A0053696567653A0043686F633AE0
:101020000000F29E1BEC11F0FCEC0CF04CEC11F00B
:101030007CEC11F0B4EC12F0106E020E016E105048
:101040007AEC12F0106E010E00010001806F10505A
:10105000520EAD6EF28E8B948B928F90106E000EAE
:1010600000010001736F1050106E780E0001000136
:10107000746F1050106E000E000100017F6F105051
:10108000106E0D0E0B6E1050116E220E0C6E115064
:101090004BEC10F0106E520E0A6E1050D8EC11F09E
:1010A000106E200E0A6E1050D8EC11F0106E560E15
:1010B0000A6E1050D8EC11F0106E200E0A6E10500F
:1010C000D8EC11F0106E420E0A6E1050D8EC11F0F0
:1010D000106E0E0E0B6E1050116E220E0C6E115013
:1010E0004BEC10F0106E300E0A6E1050D8EC11F070
:1010F000106E200E0A6E1050D8EC11F0106E300EEB
:101100000A6E1050D8EC11F0106E200E0A6E1050BE
:10111000D8EC11F0106E300E0A6E1050D8EC11F0B1
:10112000106E0F0E0B6E1050116E220E0C6E1150C1
:101130004BEC10F0106E310E0A6E1050D8EC11F01E
:10114000106E200E0A6E1050D8EC11F0106E310E99
:101150000A6E1050D8EC11F0106E200E0A6E10506E
:10116000D8EC11F0106E310E0A6E1050D8EC11F060
:10117000106E000E00010001666F105000D081B6A5
:1011800001D001D052D081C087F082C088F083C0E6
:1011900089F084C08AF000D081A601D001D0FCD7AC
:1011A00000D0000187C010F0000188C011F00001DC
:1011B00089C012F000018AC013F0101E111E121E09
:1011C000131E102A000E1122122213220001000108
:1011D00081511024146E0001000182511120156EFE
:1011E0000001000183511220166E0001000184519C
:1011F0001320176E0A0E145C000E1558000E1658B8
:10120000000E1758D8A001D001D007D0106E010EE3
:1012100000010001926F105008D0106E000E000106
:101220000001926F105001D000D0106E010E0B6EB5
:101230001050116E000E0C6E11504BEC10F0100E91
:101240000B6E140E0A6EACEC11F081B401D001D01B
:1012500007D0106E310E0A6E1050D8EC11F007D086
:10126000106E300E0A6E1050D8EC11F000D0106ED7
:10127000040E0B6E1050116E000E0C6E11504BECE4
:1012800010F0100E0B6E1B0E0A6EACEC11F081B656
:1012900001D001D007D0106E310E0A6E1050D8EC7C
:1012A00011F007D0106E300E0A6E1050D8EC11F00D
:1012B00000D0106E050E0B6E1050116E000E0C6EED
:1012C00011504BEC10F0100E0B6E000E0A6EACECD1
:1012D00011F000010001926701D001D007D0106E1B
:1012E000310E0A6E1050D8EC11F007D0106E300E8F
:1012F0000A6E1050D8EC11F000D0106E060E0B6E76
:101300001050116E000E0C6E11504BEC10F0100EC0
:101310000B6E0B0E0A6EACEC11F084B001D001D054
:1013200004D000010001732B00D084B201D001D0A1
:1013300004D000010001730700D073C00AF0C7ECAD
:101340000FF01DD71CD71200276E010E00010001FF
:10135000656F2750276E010E00010001696F27504D
:10136000276E020E000100016A6F2750276E030EE0
:10137000000100016B6F2750276E040E0001000171
:101380006C6F2750276E050E000100016D6F27500E
:10139000276E060E000100016E6F2750276E050EA6
:1013A00000010001706F2750000100017051010D14
:1013B0000001690EF324D96E0001000EF420DA6EEC
:1013C000DF50000100016F6FFCCF28F0020EFC6EB1
:1013D000220E2A6E100E2B6E000E2C6E2AC031F0DB
:1013E0002BC032F02CC033F0000E2E6E310E2D6E5D
:1013F0002DC0D9FF2EC0DAFFDF50FD6E2D4A2E2AF8
:101400002DC0D9FF2EC0DAFFDF50FE6E2D4A2E2AE6
:101410002DC0D9FF2EC0DAFFDF50FF6E070EFC6E25
:101420006E0E2A6E1B0E2B6E000E2C6E2AC031F033
:101430002BC032F02CC033F0000E2E6E310E2D6E0C
:101440002DC0D9FF2EC0DAFFDF50FD6E2D4A2E2AA7
:101450002DC0D9FF2EC0DAFFDF50FE6E2D4A2E2A96
:101460002DC0D9FF2EC0DAFFDF50FF6E0C0EFC6ED0
:10147000BE0E2A6E1C0E2B6E000E2C6E2AC031F092
:101480002BC032F02CC033F0000E2E6E310E2D6EBC
:101490002DC0D9FF2EC0DAFFDF50FD6E2D4A2E2A57
:1014A0002DC0D9FF2EC0DAFFDF50FE6E2D4A2E2A46
:1014B0002DC0D9FF2EC0DAFFDF50FF6E110EFC6E7B
:1014C0001C0E2A6E180E2B6E000E2C6E2AC031F0E8
:1014D0002BC032F02CC033F0000E2E6E310E2D6E6C
:1014E0002DC0D9FF2EC0DAFFDF50FD6E2D4A2E2A07
:1014F0002DC0D9FF2EC0DAFFDF50FE6E2D4A2E2AF6
:101500002DC0D9FF2EC0DAFFDF50FF6E160EFC6E25
:101510000E0E2A6E160E2B6E000E2C6E2AC031F0A7
:101520002BC032F02CC033F0000E2E6E310E2D6E1B
:101530002DC0D9FF2EC0DAFFDF50FD6E2D4A2E2AB6
:101540002DC0D9FF2EC0DAFFDF50FE6E2D4A2E2AA5
:101550002DC0D9FF2EC0DAFFDF50FF6E1B0EFC6ED0
:10156000020E2A6E240E2B6E000E2C6E2AC031F055
:101570002BC032F02CC033F0000E2E6E310E2D6ECB
:101580002DC0D9FF2EC0DAFFDF50FD6E2D4A2E2A66
:101590002DC0D9FF2EC0DAFFDF50FE6E2D4A2E2A55
:1015A0002DC0D9FF2EC0DAFFDF50FF6E28C0FCFF30
:1015B000276E020E01010101036F2750276E070EEF
:1015C00002010201036F2750276E0C0E0301030175
:1015D000036F2750276E110E04010401036F27507B
:1015E000276E160E05010501036F2750276E1B0E8F
:1015F00006010601036F2750000E00010001726F03
:10160000000E0001716F010ED56EF28A120000D03B
:101610009EA801D001D0FCD700D0740EAD6E00D0D2
:10162000ACA201D001D0FCD701D000D09EA801D03F
:1016300001D0FCD700D0610EAD6E00D0ACA201D0BD
:1016400001D0FCD701D000D09EA801D001D0FCD79A
:1016500000D0630EAD6E00D0ACA201D001D0FCD79B
:1016600001D000D09EA801D001D0FCD700D0680ED8
:10167000AD6E00D0ACA201D001D0FCD701D000D01B
:101680009EA801D001D0FCD700D0650EAD6E00D071
:10169000ACA201D001D0FCD701D000D09EA801D0CF
:1016A00001D0FCD700D0350EAD6E00D0ACA201D079
:1016B00001D0FCD701D000D09EA801D001D0FCD72A
:1016C00000D05F0EAD6E00D0ACA201D001D0FCD72F
:1016D00001D000D09EA801D001D0FCD700D0650E6B
:1016E000AD6E00D0ACA201D001D0FCD701D000D0AB
:1016F0009EA801D001D0FCD700D06E0EAD6E00D0F8
:10170000ACA201D001D0FCD701D000D09EA801D05E
:1017100001D0FCD700D05F0EAD6E00D0ACA201D0DE
:1017200001D0FCD701D000D09EA801D001D0FCD7B9
:1017300000D0630EAD6E00D0ACA201D001D0FCD7BA
:1017400001D000D09EA801D001D0FCD700D06F0EF0
:10175000AD6E00D0ACA201D001D0FCD701D000D03A
:101760009EA801D001D0FCD700D0750EAD6E00D080
:10177000ACA201D001D0FCD701D000D09EA801D0EE
:1017800001D0FCD700D0720EAD6E00D0ACA201D05B
:1017900001D0FCD701D000D09EA801D001D0FCD749
:1017A00000D0730EAD6E00D0ACA201D001D0FCD73A
:1017B00000D0000E026E000E016EE80E015CFD0E00
:1017C0000258D8A001D001D002D00CD00BD0014AD1
:1017D000022AE80E015CFD0E0258D8A001D001D00B
:1017E000F6D700D0000E026E000E016EE80E015C0E
:1017F000FD0E0258D8A001D001D002D008D707D7DB
:10180000014A022AE80E015CFD0E0258D8A001D060
:1018100001D0F6D7FCD6FBD6FAD6120000D09EA88F
:1018200001D001D0FCD700D0540EAD6E00D0ACA2D8
:1018300001D001D0FCD701D000D09EA801D001D0AA
:10184000FCD700D0410EAD6E00D0ACA201D001D0CB
:10185000FCD701D000D09EA801D001D0FCD700D089
:10186000430EAD6E00D0ACA201D001D0FCD701D0A8
:1018700000D09EA801D001D0FCD700D0480EAD6E9C
:1018800000D0ACA201D001D0FCD701D000D09EA8DE
:1018900001D001D0FCD700D0450EAD6E00D0ACA277
:1018A00001D001D0FCD701D000D09EA801D001D03A
:1018B000FCD700D0340EAD6E00D0ACA201D001D068
:1018C000FCD701D000D09EA801D001D0FCD700D019
:1018D0005F0EAD6E00D0ACA201D001D0FCD701D01C
:1018E00000D09EA801D001D0FCD700D0450EAD6E2F
:1018F00000D0ACA201D001D0FCD701D000D09EA86E
:1019000001D001D0FCD700D04E0EAD6E00D0ACA2FD
:1019100001D001D0FCD701D000D09EA801D001D0C9
:10192000FCD700D05F0EAD6E00D0ACA201D001D0CC
:10193000FCD701D000D09EA801D001D0FCD700D0A8
:10194000430EAD6E00D0ACA201D001D0FCD701D0C7
:1019500000D09EA801D001D0FCD700D04F0EAD6EB4
:1019600000D0ACA201D001D0FCD701D000D09EA8FD
:1019700001D001D0FCD700D0550EAD6E00D0ACA286
:1019800001D001D0FCD701D000D09EA801D001D059
:10199000FCD700D0520EAD6E00D0ACA201D001D069
:1019A000FCD701D000D09EA801D001D0FCD700D038
:1019B000530EAD6E00D0ACA201D001D0FCD700D048
:1019C000000E026E000E016EE80E015CFD0E025864
:1019D000D8A001D001D002D021D720D7014A022AB5
:1019E000E80E015CFD0E0258D8A001D001D0F6D758
:1019F00015D714D713D712000B6E000E0E6E0B50B6
:101A0000000E906E1F0E916E000E996E000E9A6E73
:101A1000919A918C91980B6E040E016E0B508FEC85
:101A200012F091880B6E0C0E016E0B508FEC12F0C1
:101A300017D00E2A0B6E0C0E016E0B508FEC12F0AD
:101A4000C80E0E6401D001D00BD08B828F808B9496
:101A5000F29EFFD70B6E000E0E6E0B5001D000D021
:101A600029EC12F00009D8B401D001D0E2D700D09F
:101A70000B6E270E066E0B500C6E0F0E076E0C5081
:101A80000D6E210E086E0D5083EC0FF00B6E000EE4
:101A9000066E0B500C6E000E076E0C500D6E220E73
:101AA000086E0D5083EC0FF00B6E000E066E0B509F
:101AB0000C6E000E076E0C500D6E240E086E0D504D
:101AC00083EC0FF00B6E000E066E0B500C6E7B0E4F
:101AD000076E0C500D6E400E086E0D5083EC0FF02B
:101AE0000B6E280E066E0B500C6E000E076E0C501F
:101AF0000D6E410E086E0D5083EC0FF00B6E000E54
:101B0000066E0B500C6E800E076E0C500D6E420E62
:101B1000086E0D5083EC0FF00B6E280E066E0B5006
:101B20000C6E000E076E0C500D6E430E086E0D50BD
:101B300083EC0FF00B6E800E066E0B5048EC12F02B
:101B40000B6E9C0E066E0B5048EC12F00B6EA00E46
:101B5000066E0B5048EC12F00B6E020E066E0B5028
:101B60000C6E700E076E0C50EAEC10F01200096E4D
:101B7000000E00010001666F095000D08F868F981B
:101B80000B0E026EB80E016EC5EC12F0160EC06E92
:101B9000010EC26E030EC26E00D0C2B201D001D0DF
:101BA000FCD7C4CF0EF0C3CF0FF00F500F0BD8B43B
:101BB00001D001D009D0096E000E0E6E0950096ED9
:101BC000000E0F6E095000D0090E0E6401D001D036
:101BD0006CD08F968F880B0E026EB80E016EC5EC1E
:101BE00012F0160EC06E050EC26E070EC26E00D049
:101BF000C2B201D001D0FCD7C4CF10F0C3CF11F0D6
:101C000011500F0BD8B401D001D009D0096E000ECD
:101C1000106E0950096E000E116E095000D0130E9F
:101C2000106401D001D039D00E500B6E0F500A6EE7
:101C300010500D6E11500C6EB20E0A240A6EF30E87
:101C40000B200B6E9C0E0C240C6EE60E0D200D6E00
:101C50000AC001F00BC002F0000E046EF60E036E17
:101C600083EC10F0015000010001676F0CC001F01F
:101C70000DC002F0010E046E990E036E83EC10F09D
:101C8000015000087F0F00010001686F096E010E0E
:101C900000010001666F095071D7096E000E000146
:101CA0000001666F09506AD769D7096E000E0001FE
:101CB0000001666F095062D761D760D7120000013A
:101CC00000016605D8A401D001D030D0CA0E0001B1
:101CD0000001676501D001D029D0D10E00010001BB
:101CE000676101D001D022D0700E0001000168654B
:101CF00001D001D009D0790E00010001686101D046
:101D000001D002D08B8400D0780E000100016865FC
:101D100001D001D00BD07F0E00010001686101D01D
:101D200001D004D08B9402D001D000D0000100017A
:101D30006605D8A401D001D030D0D60E0001000134
:101D4000676501D001D029D0DD0E00010001676177
:101D500001D001D022D0700E00010001686501D0D1
:101D600001D009D0790E00010001686101D001D0D5
:101D700002D08B8200D0780E00010001686501D08E
:101D800001D00BD07F0E00010001686101D001D0AD
:101D900004D08B9202D001D000D000010001660572
:101DA000D8A401D001D08BD7E20E000100016765F5
:101DB00001D001D084D7E90E00010001676101D094
:101DC00001D07DD7700E00010001686501D001D0FF
:101DD00009D0790E00010001686101D001D002D064
:101DE0008F8000D0780E00010001686501D001D01D
:101DF00066D77F0E00010001686101D001D05FD776
:101E00008F905DD75CD75BD75AD759D71200958290
:101E10008C968C94000E026E640E016ED5EC12F05E
:101E20008C86056E000E066E055000D0030E026E05
:101E3000E80E016ED5EC12F0062A83A001D001D085
:101E400005D0056E410E066E055000D0400E0664AA
:101E500001D001D0EBD783A001D001D050D0056EC6
:101E6000000E076E0550056E000E086E0550056EDB
:101E7000000E096E0550056E000E086E0550070E27
:101E8000086401D001D002D026D025D083A201D091
:101E900001D003D009500109096E09500924096EC7
:101EA000000E026E640E016ED5EC12F08C84010EF1
:101EB000026EF40E016ED5EC12F08C94010E026EDF
:101EC000900E016ED5EC12F0082A070E086401D0BE
:101ED00001D0DCD700D00750010DF3500324D96E98
:101EE000F4500420DA6E09C0DFFF072A83B001D066
:101EF00001D0BDD700D0075005D004D003D0000ECC
:101F000001D000D01200096E000E0A6E09500AECD2
:101F100010F0096E0904D8A401D001D035D0096EA3
:101F20000C0E016E09508FEC12F006C001F0E5ECCA
:101F300012F00AEC10F0096E0904D8A401D001D007
:101F400023D0096E0C0E016E09508FEC12F007C001
:101F500001F0E5EC12F00AEC10F0096E0904D8A4C7
:101F600001D001D011D0096E0C0E016E09508FEC1A
:101F700012F008C001F0F1EC12F0096E010E0A6EC9
:101F8000095002D001D000D00A5000D012000A3807
:101F90000F0B0C6E090E0C6401D001D004D00C5054
:101FA000170F0C6E07D00C50100F0C6E03D002D020
:101FB00000F000D00CC006F00B6EC00E076E0B5088
:101FC000EAEC10F00009D8B401D001D0F1D700D06C
:101FD0000A500F0B0C6E090E0C6401D001D004D016
:101FE0000C50170F0C6E07D00C50100F0C6E03D056
:101FF00002D000F000D00CC006F00B6EC00E076ED1
:102000000B50EAEC10F00009D8B401D001D0F1D7A0
:1020100000D01200026E000E036E0250026E020E1D
:10202000056E02502ED0996891809196919200F0A1
:1020300087CF04F0918291860450030B046E045004
:10204000030AD8B401D001D016D0032A026E0C0EB8
:10205000016E02508FEC12F0F90E036401D001D032
:1020600010D0F29E8B948B828F80026E000E056ED4
:10207000025007D006D0026E010E056E025001D04C
:1020800000D00550020AD8B401D001D0CCD700D07E
:10209000055000D012007B0E0F6E000E0E6E0F0E5C
:1020A0000B6401D001D005D00D6E000E0B6E0D50EB
:1020B00000D0270E0C6401D001D005D00D6E000EAB
:1020C0000C6E0D5000D00B50280D0C50F326000E56
:1020D000F4220E50F3240E6E0F50F4200F6E02D037
:1020E00000F000D00EC006F00F50076E0D6E240EEB
:1020F000086E0D5083EC0FF00009D8B401D001D068
:10210000EFD700D01200000E076E000E066E0450CE
:102110000310D8B401D001D027D0056E010E086E8F
:10212000055005D0D89003360436082A00D004AEF6
:1021300001D001D0F7D701D000D0D89006360736AD
:102140000350015C04500258D8A001D001D006D041
:102150000350015E0450025A068000D0D890043229
:102160000332082EEAD700D006C001F007C002F003
:102170001200A00E0F010F01266F000E0F010F01BC
:10218000256F000E0F010F01246F000E0F010F01CC
:10219000236F0F010F0125810F010F0125830F010F
:1021A0000F0125850F010F0125870F010F012485E0
:1021B0000F010F0124878B848B828F8094949492DB
:1021C00098909896989895949596F19E0F010F0186
:1021D000538D1200086E000E096E08500AEC10F0C4
:1021E000086E0804D8A401D001D022D0086E0C0ECD
:1021F000016E08508FEC12F006C001F0E5EC12F011
:102200000AEC10F0086E0804D8A401D001D010D058
:10221000086E0C0E016E08508FEC12F007C001F032
:10222000F1EC12F0086E010E096E085001D000D0DA
:10223000095000D01200A00E0F010F01266F000EF2
:102240000F010F01256F000E0F010F01246F000E0B
:102250000F010F01236F0F010F0125810F010F01E6
:1022600025830F010F0125850F010F0125870F0120
:102270000F0124850F010F0124878B848B828F80AF
:102280009494949298909896989895949596F19E97
:102290000F010F01538D12000B6E000E066E0B50D6
:1022A0000C6E000E076E0C500D6E240E086E0D5055
:1022B00083EC0FF0000E0F6E000E0E6E0F50800AB2
:1022C0000E10D8A401D001D002D015D014D00B6EBE
:1022D000000E066E0B500C6EC00E076E0C50EAEC32
:1022E00010F00E4A0F2A0F50800A0E10D8A401D009
:1022F00001D0EDD700D012000B6E000E066E0B5011
:102300000C6E800E076E0C500D6E240E086E0D5074
:1023100083EC0FF0800E0F6E000E0E6E0F50F80A59
:102320000E10D8A401D001D002D015D014D00B6E5D
:10233000000E066E0B500C6EC00E076E0C50EAECD1
:1023400010F00E4A0F2A0F50F80A0E10D8A401D030
:1023500001D0EDD700D012001CD002D000F000D088
:102360000AC0F6FF0BC0F7FF000EF86E0800F5502C
:10237000E00F066E0C6EC00E076E0C50EAEC10F00B
:102380000009D8B401D001D0E9D700D00A4A0B2AFD
:1023900000D00AC0F6FF0BC0F7FF000EF86E080071
:1023A000F5500009D8A401D001D0DAD700D012002E
:1023B000200E0A6001D001D005D00B6E3F0E0A6ED0
:1023C0000B5000D09F0E0A6401D001D005D00B6ED7
:1023D0003F0E0A6E0B5000D00A50E00F0A6E02D07A
:1023E00000F000D00AC006F00B6EC00E076E0B5056
:1023F000EAEC10F00009D8B401D001D0F1D700D038
:1024000012000001000E046E0001750E036E07EC51
:102410000FF00B6E0B50D8B401D001D010D00A0EC3
:102420000B6001D001D003D00BC07FF0EAD70A6E59
:10243000000E000100017F6F0A50E3D7E2D70A6E59
:10244000000E000100017F6F0A50DBD7DAD7D9D721
:102450001200996891809196919200F000F000F03E
:1024600087CF02F0918291860250030B030AD8A411
:1024700001D001D005D0016E010E026E015005D0D1
:10248000016E000E026E015000D0025000D012000A
:10249000076E000E086E07500AEC10F0076E070476
:1024A000D8A401D001D010D0076E0C0E016E0750D9
:1024B0008FEC12F006C001F0F1EC12F0076E010E85
:1024C000086E075001D000D012000BD0286E010E0C
:1024D0002F6E28500ED0286E010E306E285009D075
:1024E00008D02750010AD8B4F1D7030AD8B4F3D7DB
:1024F00000D012000BD0026E010E2F6E02500ED0D3
:10250000026E010E306E025009D008D00150010A4F
:10251000D8B4F1D7030AD8B4F3D700D012000CD046
:1025200000F000F000F000F000F000F000F000F02B
:1025300000F000F0010600D0016601D001D0F0D714
:1025400000D01200B9EC10F0A4EC09F0296E010ED5
:10255000276E295065EC12F0D58EF284F28E00F0D1
:10256000FED7FDD7E5EF01F0949C948E080E656EC2
:10257000040ED46EE10EAF6E040EAC6E800EAB6E28
:10258000240EAC6E900EAB6E120007D000F000F07F
:1025900000F00106D8A0020600D002500110D8A415
:1025A00001D001D0F3D700D0120007D000F000F026
:1025B00000F00106D8A0020600D002500110D8A4F5
:1025C00001D001D0F3D700D0120001C090FF000E5F
:1025D000996E91909196919400F000F0918491867B
:1025E000120001C090FF000E996E91809196919417
:1025F00000F000F0918491861200366A356A346AE0
:062600000001A2EF12F040
:020000040020DA
:08000000FFFFFFFFFFFFFFFF00
:020000040030CA
:0E00000015136100308081FFFFC0FFE0FF405C
:00000001FF
