:04000000E5EF01F037
:10000800FACF16F0FBCF17F0E9CF18F0EACF19F0C6
:10001800E1CF1AF0E2CF1BF0D9CF1CF0DACF1DF0F8
:10002800F3CF1EF0F4CF1FF0F6CF20F0F7CF21F07A
:10003800F8CF22F0F5CF23F0D8CF61F0000100010E
:10004800606FE0CF62F0EACF63F0E9CF64F0F2AA24
:1000580001D001D081D1F2A401D001D07DD100011D
:1000680000016505D8A401D001D009D01B0EFC6E93
:10007800156E000E00010001656F155000D06FC0AD
:10008800EAFF000EE96E60C0EEFF61C0EEFF62C0DD
:10009800EEFFFCCFEEFF63C0EEFF64C0EEFFE2CFE1
:1000A800EEFFE1CFEEFFDACFEEFFD9CFEEFFF4CFD0
:1000B800EEFFF3CFEEFFF8CFEEFFF7CFEEFFF6CF70
:1000C800EEFFF5CFEEFFFBCFEEFFFACFEEFF000E0F
:1000D800E26E000EE16EE6CFEEFFE6CFEEFFE6CF72
:1000E800EEFFE6CFEEFFE6CFEEFFE6CFEEFFE6CF80
:1000F800EEFFE6CFEEFFE6CFEEFFE6CFEEFFE6CF70
:10010800EEFFE6CFEEFFE6CFEEFFE6CFEEFFE6CF5F
:10011800EEFFE6CFEEFFE6CFEEFFE6CFEEFFE6CF4F
:10012800EEFFE6CFEEFFE6CFEEFFE6CFEEFFE6CF3F
:10013800EEFFE6CFEEFFE6CFEEFFE6CFEEFFE6CF2F
:10014800EEFFE6CFEEFFE6CFEEFFE6CFEEFFE6CF1F
:10015800EEFFE6CFEEFFE6CFEEFFE6CFEEFFE6CF0F
:10016800EEFFE6CFEEFFE6CFEEFFE6CFEEFFE6CFFF
:10017800EEFFE6CFEEFFE6CFEEFFE6CFEEFFE6CFEF
:10018800EEFFE6CFEEFFE6CFEEFFE6CFEEFFE6CFDF
:10019800EEFFE6CFEEFF8A0ED76ECF0ED66EF29444
:1001A800010E00010001812500010001816F000E90
:1001B8000001000182210001826F000E0001000190
:1001C80083210001836F000E0001000184210001DA
:1001D800846F00010001714B722B00010001702B2C
:1001E800000100017051060AD8A401D001D007D03F
:1001F800156E000E00010001706F155000D000014F
:1002080000017051010D0001690EF324D96E00013F
:10021800000EF420DA6EDF50000100016F6F000E4F
:10022800E26E000EE16E6FC0EAFF120EE96EEECFCD
:10023800E6FFEECFE6FFEECFE6FFEECFE6FFEECF2E
:10024800E6FFEECFE6FFEECFE6FFEECFE6FFEECF1E
:10025800E6FFEECFE6FFEECFE6FFEECFE6FFEECF0E
:10026800E6FFEECFE6FFEECFE6FFEECFE6FFEECFFE
:10027800E6FFEECFE6FFEECFE6FFEECFE6FFEECFEE
:10028800E6FFEECFE6FFEECFE6FFEECFE6FFEECFDE
:10029800E6FFEECFE6FFEECFE6FFEECFE6FFEECFCE
:1002A800E6FFEECFE6FFEECFE6FFEECFE6FFEECFBE
:1002B800E6FFEECFE6FFEECFE6FFEECFE6FFEECFAE
:1002C800E6FFEECFE6FFEECFE6FFEECFE6FFEECF9E
:1002D800E6FFEECFE6FFEECFE6FFEECFE6FFEECF8E
:1002E800E6FFEECFE6FFEECFE6FFEECFE6FF6FC00C
:1002F800EAFF000EE96EEECF60F0EECF61F0EECFD0
:1003080062F0EECFFCFFEECF63F0EECF64F0EECFFD
:10031800E2FFEECFE1FFEECFDAFFEECFD9FFEECF6F
:10032800F4FFEECFF3FFEECFF8FFEECFF7FFEECFFF
:10033800F6FFEECFF5FFEECFFBFFEECFFAFF64C07E
:10034800E9FF63C0EAFF62C0E0FF000100016051FD
:1003580061C0D8FF100000D064C0E9FF63C0EAFFA5
:1003680062C0E0FF00010001605161C0D8FF1000C9
:1003780020EC16F0C2EC0FF077EC08F022EC16F047
:1003880000EC0EF0FAEC14F023C0F5FF22C0F8FFE1
:1003980021C0F7FF20C0F6FF1FC0F4FF1EC0F3FF07
:1003A8001DC0DAFF1CC0D9FF1BC0E2FF1AC0E1FF65
:1003B80019C0EAFF18C0E9FF17C0FBFF16C0FAFF13
:0603C800110019EF16F010
:1010000020415543554E2020202020202020202004
:10101000202020200068656C6C6F207365636F6E04
:10102000642073637265656E0068656C6C6F207414
:10103000686972642073637265656E00736F6369BB
:10104000616C206461746120207C006D61696E7444
:10105000656E616E636520207C006D61696E207332
:10106000637265656E20207C002D2D2D2D2D2D2D7C
:101070002D2D2D2D2D2D0054656D702E2048756958
:101080006C653A00582D4A6F79737469636B3A0046
:10109000592D4A6F79737469636B3A0054656D70AA
:1010A0002E204561753A0042617474657269653A33
:1010B00000566974657373653A004D6172636865C3
:1010C0003A0042616467653A0053696567653A00B2
:1010D00028282129290043686F633A0020793D00C0
:1010E0004E2000783D004152004156000000F29E23
:1010F00014EC14F007EC0FF045EC14F075EC14F060
:10110000D0EC15F0126E020E016E125096EC15F036
:10111000126E010E00010001806F1250520EAD6E72
:10112000F28E8B948B928F90126E000E0001000154
:10113000736F1250126E780E00010001746F12501E
:10114000126E000E000100017F6F1250E6EC10F0ED
:10115000126E000E00010001666F1250CCD3CBD38B
:10116000126E000E0B6E1250136E000E0C6E1350AA
:1011700044EC13F0100E0B6EBA0E0A6EA5EC14F0D0
:1011800081B001D001D007D0100E0B6EE90E0A6EAF
:10119000A5EC14F013D081B201D001D007D0100E0D
:1011A0000B6EE60E0A6EA5EC14F008D0100E0B6E56
:1011B000E00E0A6EA5EC14F001D000D0126E010E04
:1011C0000B6E1250136E000E0C6E135044EC13F0A5
:1011D000100E0B6EC90E0A6EA5EC14F081B401D08E
:1011E00001D007D0126E310E0A6E1250D1EC14F0FD
:1011F00007D0126E300E0A6E1250D1EC14F000D0EF
:10120000126E020E0B6E1250136E000E0C6E135007
:1012100044EC13F0100E0B6E9C0E0A6EA5EC14F04D
:10122000126E020E016E125022EC15F00A6EC0EC26
:1012300012F0126E030E0B6E1250136E000E0C6E37
:10124000135044EC13F0100E0B6E770E0A6EA5ECE3
:1012500014F0126E030E016E125022EC15F00A6E9D
:10126000C0EC12F0126E040E0B6E1250136E000ED4
:101270000C6E135044EC13F0100E0B6ED60E0A6E6B
:10128000A5EC14F081B601D001D007D0126E310E5A
:101290000A6E1250D1EC14F007D0126E300E0A6EA6
:1012A0001250D1EC14F000D0126E050E0B6E1250DD
:1012B000136E000E0C6E135044EC13F0100E0B6EF8
:1012C000B10E0A6EA5EC14F084B001D001D004D0A8
:1012D00000010001732B00D084B201D001D004D0F2
:1012E00000010001730700D073C00AF0C0EC12F0D7
:1012F000126E060E0B6E1250136E000E0C6E135013
:1013000044EC13F0100E0B6EA70E0A6EA5EC14F051
:1013100084B401D001D004D000010001742B00D0AE
:1013200084B601D001D004D000010001740700D0C0
:1013300074C00AF0C0EC12F0126E070E0B6E125061
:10134000136E000E0C6E135044EC13F084B801D0F1
:1013500001D007D0100E0B6ED00E0A6EA5EC14F063
:1013600007D0100E0B6E0F0E0A6EA5EC14F000D015
:10137000126E080E0B6E1250136E000E0C6E135090
:1013800044EC13F0100E0B6EC20E0A6EA5EC14F0B6
:10139000000100017F6701D001D007D0100E0B6E55
:1013A000000E0A6EA5EC14F01FD0126E000E146E23
:1013B000125010D01450010D0001750EF324D96E97
:1013C0000001000EF420DA6EDF500A6EC0EC12F05D
:1013D000142A00D0000100017F51145CD8A001D074
:1013E00001D0E8D701D000D0126E090E0B6E12505A
:1013F000136E000E0C6E135044EC13F0100E0B6EB7
:10140000840E0A6EA5EC14F0126E0A0E016E1250D4
:1014100022EC15F00A6EC0EC12F0126E0A0E0B6E82
:101420001250136E000E0C6E135044EC13F0100E9D
:101430000B6E900E0A6EA5EC14F0126E0B0E016E80
:10144000125022EC15F00A6EC0EC12F000010001FF
:101450006605D8A401D001D025D0126E000E0B6E07
:101460001250136E140E0C6E135044EC13F0100E49
:101470000B6EE30E0A6EA5EC14F067C00AF0C0EC28
:1014800012F0100E0B6EDC0E0A6EA5EC14F068C0A4
:101490000AF0C0EC12F067C00BF068C00CF05FEC13
:1014A00011F002D000F000D0126E0D0E0B6E125033
:1014B000136E000E0C6E135044EC13F0100E0B6EF6
:1014C000690E0A6EA5EC14F0126E0E0E0B6E125021
:1014D000136E000E0C6E135044EC13F0100E0B6ED6
:1014E0003C0E0A6EA5EC14F0126E0F0E0B6E12502D
:1014F000136E0D0E0C6E135044EC13F0100E0B6EA9
:10150000490E0A6EA5EC14F0126E100E0B6E1250FE
:10151000136E0D0E0C6E135044EC13F0126E0D0E84
:101520000B6E1250136E0E0E0C6E135044EC13F033
:10153000100E0B6E690E0A6EA5EC14F0126E0E0EF4
:101540000B6E1250136E0E0E0C6E135044EC13F013
:10155000100E0B6E4B0E0A6EA5EC14F0126E0F0EF1
:101560000B6E1250136E1B0E0C6E135044EC13F0E6
:10157000100E0B6E490E0A6EA5EC14F0126E100ED2
:101580000B6E1250136E1B0E0C6E135044EC13F0C6
:10159000000100016605D8A401D001D032D0500E60
:1015A00000010001676101D001D00ED0600E000182
:1015B0000001686501D001D007D045EC14F0126E2F
:1015C000010E346E125000D0500E0001000167650C
:1015D00001D001D016D0A30E00010001676101D037
:1015E00001D00FD0600E00010001686501D001D06C
:1015F00008D045EC14F0126E020E346E125001D079
:1016000000D0000100016605D8A401D001D030D07F
:10161000CA0E00010001676501D001D029D0D10EAA
:1016200000010001676101D001D022D0700E0001DD
:101630000001686501D001D009D0790E00010001D8
:10164000686101D001D002D08B8400D0780E0001F7
:101650000001686501D001D00BD07F0E00010001B0
:10166000686101D001D004D08B9402D001D000D0A9
:10167000000100016605D8A401D001D030D0D60EFB
:1016800000010001676501D001D029D0DD0E000105
:101690000001676101D001D022D0700E000100016D
:1016A000686501D001D009D0790E000100016861A0
:1016B00001D001D002D08B8200D0780E0001000151
:1016C000686501D001D00BD07F0E00010001686178
:1016D00001D001D004D08B9202D001D000D0000103
:1016E00000016605D8A401D001D005D1E20E0001A9
:1016F0000001676501D001D0FED0E90E00010001B4
:10170000676101D001D0F7D0700E0001000168655B
:1017100001D001D009D0790E00010001686101D02B
:1017200001D002D08F8000D0780E000100016865E2
:1017300001D001D0E0D07F0E00010001686101D02E
:1017400001D0D9D08F90D7D0D6D0D5D0D4D0126EEA
:10175000000E0B6E1250136E000E0C6E135044EC04
:1017600013F0100E0B6E150E0A6EA5EC14F0126E2F
:101770000D0E0B6E1250136E000E0C6E135044ECD7
:1017800013F0100E0B6E690E0A6EA5EC14F0126EBB
:101790000E0E0B6E1250136E000E0C6E135044ECB6
:1017A00013F0100E0B6E5A0E0A6EA5EC14F0126EAA
:1017B0000F0E0B6E1250136E0D0E0C6E135044EC88
:1017C00013F0100E0B6E490E0A6EA5EC14F0126E9B
:1017D000100E0B6E1250136E0D0E0C6E135044EC67
:1017E00013F0000100016605D8A401D001D083D018
:1017F000500E00010001676101D001D07CD0600E65
:1018000000010001686501D001D075D045EC14F0ED
:10181000126E000E346E1250E6EC10F06CD06BD0ED
:101820006AD0126E000E0B6E1250136E000E0C6E0C
:10183000135044EC13F0100E0B6E290E0A6EA5EC3B
:1018400014F0126E0D0E0B6E1250136E000E0C6E15
:10185000135044EC13F0100E0B6E690E0A6EA5ECDB
:1018600014F0126E0E0E0B6E1250136E000E0C6EF4
:10187000135044EC13F0100E0B6E5A0E0A6EA5ECCA
:1018800014F0126E0F0E0B6E1250136E0D0E0C6EC6
:10189000135044EC13F0100E0B6E490E0A6EA5ECBB
:1018A00014F0126E100E0B6E1250136E0D0E0C6EA5
:1018B000135044EC13F0000100016605D8A401D0D8
:1018C00001D019D0500E00010001676101D001D094
:1018D00012D0600E00010001686501D001D00BD06C
:1018E00045EC14F0126E000E346E1250E6EC10F05F
:1018F00002D001D000D03450000AD8B431D4010A4B
:10190000D8B425D7030AD8B48CD7F5D7F4D7F3D7F2
:101910001200246E010E00010001656F2450000EBC
:1019200000010001816F000E0001826F000E0001B6
:10193000836F000E0001846FF28EF28C000E7F6EBA
:101940007F9E7F9CA988246E010E00010001696FB3
:101950002450246E020E000100016A6F2450246E90
:10196000030E000100016B6F2450246E040E000171
:1019700000016C6F2450246E050E000100016D6F94
:101980002450246E060E000100016E6F2450246E58
:10199000050E00010001706F24500001000170511C
:1019A000010D0001690EF324D96E0001000EF42030
:1019B000DA6EDF50000100016F6FFCCF25F0020EE0
:1019C000FC6E400E276E2C0E286E000E296E27C06E
:1019D0002EF028C02FF029C030F0000E2B6E2E0EF6
:1019E0002A6E2AC0D9FF2BC0DAFFDF50FD6E2A4ACB
:1019F0002B2A2AC0D9FF2BC0DAFFDF50FE6E2A4AFD
:101A00002B2A2AC0D9FF2BC0DAFFDF50FF6E070E4A
:101A1000FC6E840E276E1F0E286E000E296E27C0E6
:101A20002EF028C02FF029C030F0000E2B6E2E0EA5
:101A30002A6E2AC0D9FF2BC0DAFFDF50FD6E2A4A7A
:101A40002B2A2AC0D9FF2BC0DAFFDF50FE6E2A4AAC
:101A50002B2A2AC0D9FF2BC0DAFFDF50FF6E0C0EF5
:101A6000FC6EEE0E276E100E286E000E296E27C03B
:101A70002EF028C02FF029C030F0000E2B6E2E0E55
:101A80002A6E2AC0D9FF2BC0DAFFDF50FD6E2A4A2A
:101A90002B2A2AC0D9FF2BC0DAFFDF50FE6E2A4A5C
:101AA0002B2A2AC0D9FF2BC0DAFFDF50FF6E110EA0
:101AB000FC6E440E276E2C0E286E000E296E27C079
:101AC0002EF028C02FF029C030F0000E2B6E2E0E05
:101AD0002A6E2AC0D9FF2BC0DAFFDF50FD6E2A4ADA
:101AE0002B2A2AC0D9FF2BC0DAFFDF50FE6E2A4A0C
:101AF0002B2A2AC0D9FF2BC0DAFFDF50FF6E160E4B
:101B0000FC6E000E276E1C0E286E000E296E27C07C
:101B10002EF028C02FF029C030F0000E2B6E2E0EB4
:101B20002A6E2AC0D9FF2BC0DAFFDF50FD6E2A4A89
:101B30002B2A2AC0D9FF2BC0DAFFDF50FE6E2A4ABB
:101B40002B2A2AC0D9FF2BC0DAFFDF50FF6E1B0EF5
:101B5000FC6EF40E276E290E286E000E296E27C02B
:101B60002EF028C02FF029C030F0000E2B6E2E0E64
:101B70002A6E2AC0D9FF2BC0DAFFDF50FD6E2A4A39
:101B80002B2A2AC0D9FF2BC0DAFFDF50FE6E2A4A6B
:101B90002B2A2AC0D9FF2BC0DAFFDF50FF6E25C0E9
:101BA000FCFF246E020E01010101036F2450246E1C
:101BB000070E02010201036F2450246E0C0E030174
:101BC0000301036F2450246E110E04010401036FFE
:101BD0002450246E160E05010501036F2450246E57
:101BE0001B0E06010601036F2450000E00010001C8
:101BF000726F000E0001716F010ED56EF28A120035
:101C000000D09EA801D001D0FCD700D0740EAD6EDC
:101C100000D0ACA201D001D0FCD701D000D09EA84A
:101C200001D001D0FCD700D0610EAD6E00D0ACA2C7
:101C300001D001D0FCD701D000D09EA801D001D0A6
:101C4000FCD700D0630EAD6E00D0ACA201D001D0A5
:101C5000FCD701D000D09EA801D001D0FCD700D085
:101C6000680EAD6E00D0ACA201D001D0FCD701D07F
:101C700000D09EA801D001D0FCD700D0650EAD6E7B
:101C800000D0ACA201D001D0FCD701D000D09EA8DA
:101C900001D001D0FCD700D0350EAD6E00D0ACA283
:101CA00001D001D0FCD701D000D09EA801D001D036
:101CB000FCD700D05F0EAD6E00D0ACA201D001D039
:101CC000FCD701D000D09EA801D001D0FCD700D015
:101CD000650EAD6E00D0ACA201D001D0FCD701D012
:101CE00000D09EA801D001D0FCD700D06E0EAD6E02
:101CF00000D0ACA201D001D0FCD701D000D09EA86A
:101D000001D001D0FCD700D05F0EAD6E00D0ACA2E8
:101D100001D001D0FCD701D000D09EA801D001D0C5
:101D2000FCD700D0630EAD6E00D0ACA201D001D0C4
:101D3000FCD701D000D09EA801D001D0FCD700D0A4
:101D40006F0EAD6E00D0ACA201D001D0FCD701D097
:101D500000D09EA801D001D0FCD700D0750EAD6E8A
:101D600000D0ACA201D001D0FCD701D000D09EA8F9
:101D700001D001D0FCD700D0720EAD6E00D0ACA265
:101D800001D001D0FCD701D000D09EA801D001D055
:101D9000FCD700D0730EAD6E00D0ACA201D001D044
:101DA000FCD700D0000E026E000E016EE80E015C42
:101DB000FD0E0258D8A001D001D002D00CD00BD01B
:101DC000014A022AE80E015CFD0E0258D8A001D09B
:101DD00001D0F6D700D0000E026E000E016EE80EA4
:101DE000015CFD0E0258D8A001D001D002D008D766
:101DF00007D7014A022AE80E015CFD0E0258D8A05E
:101E000001D001D0F6D7FCD6FBD6FAD612000B6E65
:101E1000000E0E6E0B50000E906E1F0E916E000E97
:101E2000996E000E9A6E919A918C91980B6E040E99
:101E3000016E0B50ABEC15F091880B6E0C0E016E21
:101E40000B50ABEC15F017D00E2A0B6E0C0E016E7A
:101E50000B50ABEC15F0C80E0E6401D001D00BD0C6
:101E60008B828F808B94F29EFFD70B6E000E0E6ECE
:101E70000B5001D000D045EC15F00009D8B401D0CA
:101E800001D0E2D700D00B6E270E066E0B500C6E01
:101E90000F0E076E0C500D6E210E086E0D507CEC6F
:101EA00012F00B6E000E066E0B500C6E000E076EDD
:101EB0000C500D6E220E086E0D507CEC12F00B6E65
:101EC000000E066E0B500C6E000E076E0C500D6E61
:101ED000240E086E0D507CEC12F00B6E000E066E98
:101EE0000B500C6E7B0E076E0C500D6E400E086E84
:101EF0000D507CEC12F00B6E280E066E0B500C6E23
:101F0000000E076E0C500D6E410E086E0D507CECED
:101F100012F00B6E000E066E0B500C6E800E076EEC
:101F20000C500D6E420E086E0D507CEC12F00B6ED4
:101F3000280E066E0B500C6E000E076E0C500D6EC8
:101F4000430E086E0D507CEC12F00B6E800E066E88
:101F50000B5064EC15F00B6E9C0E066E0B5064EC8F
:101F600015F00B6EA00E066E0B5064EC15F00B6EA8
:101F7000020E066E0B500C6E700E076E0C50E3ECEA
:101F800013F01200096E000E00010001666F095087
:101F900000D08F868F980B0E026EB80E016EE1ECAA
:101FA00015F0160EC06E010EC26E030EC26E00D08A
:101FB000C2B201D001D0FCD7C4CF0EF0C3CF0FF016
:101FC0000F500F0BD8B401D001D009D0096E000E0C
:101FD0000E6E0950096E000E0F6E095000D0090EEA
:101FE0000E6401D001D06CD08F968F880B0E026EDC
:101FF000B80E016EE1EC15F0160EC06E050EC26E45
:10200000070EC26E00D0C2B201D001D0FCD7C4CF3F
:1020100010F0C3CF11F011500F0BD8B401D001D084
:1020200009D0096E000E106E0950096E000E116E77
:10203000095000D0130E106401D001D039D00E50D9
:102040000B6E0F500A6E10500D6E11500C6EB20ECA
:102050000A240A6EF30E0B200B6E9C0E0C240C6EE1
:10206000E60E0D200D6E0AC001F00BC002F0000E4E
:10207000046EF60E036E7CEC13F0015000010001BB
:10208000676F0CC001F00DC002F0010E046E990ED6
:10209000036E7CEC13F0015000087F0F000100017B
:1020A000686F096E010E00010001666F095071D75B
:1020B000096E000E00010001666F09506AD769D7EA
:1020C000096E000E00010001666F095062D761D7EA
:1020D00060D7120095828C968C94000E026E640E6E
:1020E000016EF1EC15F08C86056E000E066E055043
:1020F00000D0030E026EE80E016EF1EC15F0062A18
:1021000083A001D001D005D0056E410E066E0550AA
:1021100000D0400E066401D001D0EBD783A001D0DF
:1021200001D050D0056E000E076E0550056E000EF2
:10213000086E0550056E000E096E0550056E000E06
:10214000086E0550070E086401D001D002D026D0D9
:1021500025D083A201D001D003D009500109096E16
:1021600009500924096E000E026E640E016EF1EC36
:1021700015F08C84010E026EF40E016EF1EC15F078
:102180008C94010E026E900E016EF1EC15F0082A8F
:10219000070E086401D001D0DCD700D00750010D34
:1021A000F3500324D96EF4500420DA6E09C0DFFF27
:1021B000072A83B001D001D0BDD700D0075005D089
:1021C00004D003D0000E01D000D01200106E0D0E0E
:1021D0000B6E1050116E220E0C6E115044EC13F069
:1021E000106E520E0A6E1050D1EC14F0106E200ECC
:1021F0000A6E1050D1EC14F0106E560E0A6E10508C
:10220000D1EC14F0106E200E0A6E1050D1EC14F0C8
:10221000106E420E0A6E1050D1EC14F0106E0E0EBD
:102220000B6E1050116E220E0C6E115044EC13F018
:10223000106E300E0A6E1050D1EC14F0106E200E9D
:102240000A6E1050D1EC14F0106E300E0A6E105061
:10225000D1EC14F0106E200E0A6E1050D1EC14F078
:10226000106E300E0A6E1050D1EC14F0106E0F0E7E
:102270000B6E1050116E220E0C6E115044EC13F0C8
:10228000106E310E0A6E1050D1EC14F0106E200E4C
:102290000A6E1050D1EC14F0106E310E0A6E105010
:1022A000D1EC14F0106E200E0A6E1050D1EC14F028
:1022B000106E310E0A6E1050D1EC14F012000BC0EB
:1022C00001F0026A000E046E060E036ECAEC11F0F5
:1022D0000C50280D0150F3240E6E0250F4200F6EA6
:1022E0000EC006F00F50076E0D6E240E086E0D50D6
:1022F0007CEC12F02CD00D6EFD0E066E0D5064ECD1
:1023000015F047D00D6EFC0E066E0D5064EC15F006
:1023100040D00D6EFB0E066E0D5064EC15F039D0FA
:102320000D6EFA0E066E0D5064EC15F032D00D6E87
:10233000F90E066E0D5064EC15F02BD00D6EF80EF4
:10234000066E0D5064EC15F024D023D022D00BC0C3
:1023500001F0026A000E046E060E036E28EC12F005
:102360000250000AD8B401D014D00150000AD8B4E9
:10237000C2D7010AD8B4C6D7030AD8B4CAD7010A4B
:10238000D8B4CED7070AD8B4D2D7010AD8B4D6D792
:1023900000D01200056E000E076E055004AE01D08D
:1023A00001D009D0036C041ED8B0042A056E010EBA
:1023B000076E055000D002AE01D001D007D0016CED
:1023C000021ED8B0022A010E071A00D0000E096EB4
:1023D000000E086E04500310D8B401D001D028D0EC
:1023E000056E010E066E055005D0D89003360436F2
:1023F000062A00D004AE01D001D0F7D701D000D01A
:10240000D890083609360350015C04500258D8A011
:1024100001D001D006D00350015E0450025A08805A
:1024200000D0D89004320332062EEAD701D000D073
:102430000750D8B401D001D005D0086C091ED8B01F
:10244000092A00D008C001F009C002F000D0120033
:10245000056E000E076E055002AE01D001D009D006
:10246000016C021ED8B0022A056E010E076E0550DF
:1024700000D004AE01D001D005D0036C041ED8B04A
:10248000042A00D004500310D8B401D001D024D0C5
:10249000056E010E066E055005D0D8900336043641
:1024A000062A00D004AE01D001D0F7D701D000D069
:1024B0000350015C04500258D8A001D001D005D0CF
:1024C0000350015E0450025A00D0D8900432033207
:1024D000062EEED701D000D00750D8B401D001D0DD
:1024E00005D0016C021ED8B0022A00D001C001F054
:1024F00002C002F000D01200096E000E0A6E0950F0
:1025000003EC13F0096E0904D8A401D001D035D032
:10251000096E0C0E016E0950ABEC15F006C001F00F
:1025200001EC16F003EC13F0096E0904D8A401D0F5
:1025300001D023D0096E0C0E016E0950ABEC15F0E2
:1025400007C001F001EC16F003EC13F0096E09046A
:10255000D8A401D001D011D0096E0C0E016E095023
:10256000ABEC15F008C001F00DEC16F0096E010E91
:102570000A6E095002D001D000D00A5000D01200DB
:102580000A380F0B0C6E090E0C6401D001D004D078
:102590000C50170F0C6E07D00C50100F0C6E03D0A0
:1025A00002D000F000D00CC006F00B6EC00E076E1B
:1025B0000B50E3EC13F00009D8B401D001D0F1D7EF
:1025C00000D00A500F0B0C6E090E0C6401D001D024
:1025D00004D00C50170F0C6E07D00C50100F0C6E5F
:1025E00003D002D000F000D00CC006F00B6EC00E7D
:1025F000076E0B50E3EC13F00009D8B401D001D002
:10260000F1D700D01200026E000E036E0250026E6F
:10261000020E056E02502ED099689180919691928B
:1026200000F087CF04F0918291860450030B046E72
:102630000450030AD8B401D001D016D0032A026E88
:102640000C0E016E0250ABEC15F0F90E036401D0D4
:1026500001D010D0F29E8B948B828F80026E000E80
:10266000056E025007D006D0026E010E056E0250B4
:1026700001D000D00550020AD8B401D001D0CCD787
:1026800000D0055000D012007B0E0F6E000E0E6EB3
:102690000F0E0B6401D001D005D00D6E000E0B6E35
:1026A0000D5000D0270E0C6401D001D005D00D6E66
:1026B000000E0C6E0D5000D00B50280D0C50F32660
:1026C000000EF4220E50F3240E6E0F50F4200F6E05
:1026D00002D000F000D00EC006F00F50076E0D6E55
:1026E000240E086E0D507CEC12F00009D8B401D015
:1026F00001D0EFD700D01200000E076E000E066E5C
:1027000004500310D8B401D001D027D0056E010EBB
:10271000086E055005D0D89003360436082A00D03C
:1027200004AE01D001D0F7D701D000D0D890063642
:1027300007360350015C04500258D8A001D001D0E4
:1027400006D00350015E0450025A068000D0D89093
:1027500004320332082EEAD700D006C001F007C0C9
:1027600002F01200A00E0F010F01266F000E0F01E4
:102770000F01256F000E0F010F01246F000E0F01D6
:102780000F01236F0F010F0125810F010F01258319
:102790000F010F0125850F010F0125870F010F0183
:1027A00024850F010F0124878B848B828F80949462
:1027B000949298909896989895949596F19E0F017A
:1027C0000F01538D1200086E000E096E085003ECC5
:1027D00013F0086E0804D8A401D001D022D0086EEE
:1027E0000C0E016E0850ABEC15F006C001F001ECC8
:1027F00016F003EC13F0086E0804D8A401D001D041
:1028000010D0086E0C0E016E0850ABEC15F007C02E
:1028100001F00DEC16F0086E010E096E085001D0A3
:1028200000D0095000D01200A00E0F010F01266F3A
:10283000000E0F010F01256F000E0F010F01246F15
:10284000000E0F010F01236F0F010F0125810F01F2
:102850000F0125830F010F0125850F010F0125872A
:102860000F010F0124850F010F0124878B848B82B8
:102870008F80949494929890989698989594959621
:10288000F19E0F010F01538D12000B6E000E066EAC
:102890000B500C6E000E076E0C500D6E240E086E61
:1028A0000D507CEC12F0000E0F6E000E0E6E0F50ED
:1028B000800A0E10D8A401D001D002D015D014D0B7
:1028C0000B6E000E066E0B500C6EC00E076E0C5099
:1028D000E3EC13F00E4A0F2A0F50800A0E10D8A412
:1028E00001D001D0EDD700D012000B6E000E066EA5
:1028F0000B500C6E800E076E0C500D6E240E086E81
:102900000D507CEC12F0800E0F6E000E0E6E0F500C
:10291000F80A0E10D8A401D001D002D015D014D0DE
:102920000B6E000E066E0B500C6EC00E076E0C5038
:10293000E3EC13F00E4A0F2A0F50F80A0E10D8A439
:1029400001D001D0EDD700D012001CD002D000F091
:1029500000D00AC0F6FF0BC0F7FF000EF86E0800AB
:10296000F550E00F066E0C6EC00E076E0C50E3ECD7
:1029700013F00009D8B401D001D0E9D700D00A4A39
:102980000B2A00D00AC0F6FF0BC0F7FF000EF86E4E
:102990000800F5500009D8A401D001D0DAD700D042
:1029A0001200200E0A6001D001D005D00B6E3F0E40
:1029B0000A6E0B5000D09F0E0A6401D001D005D0E2
:1029C0000B6E3F0E0A6E0B5000D00A50E00F0A6EDD
:1029D00002D000F000D00AC006F00B6EC00E076EE9
:1029E0000B50E3EC13F00009D8B401D001D0F1D7BB
:1029F00000D012000001000E046E0001750E036E7F
:102A00006AEC10F00B6E0B50D8B401D001D010D08E
:102A10000A0E0B6001D001D003D00BC07FF0EAD7C3
:102A20000A6E000E000100017F6F0A50E3D7E2D763
:102A30000A6E000E000100017F6F0A50DBD7DAD763
:102A4000D9D71200000EC16E160EC06E01501F0BBA
:102A5000016E0144E846FC0B016E01500109C26E93
:102A6000C28200D0C2B201D001D0FCD7C3A001D035
:102A700001D005D0026E000E036E025003D0C4CF09
:102A800003F000D0035000D0120099689180919615
:102A9000919200F000F000F087CF02F091829186D1
:102AA0000250030B030AD8A401D001D005D0016E57
:102AB000010E026E015005D0016E000E026E015033
:102AC00000D0025000D01200076E000E086E0750B2
:102AD00003EC13F0076E0704D8A401D001D010D086
:102AE000076E0C0E016E0750ABEC15F006C001F03E
:102AF0000DEC16F0076E010E086E075001D000D0E5
:102B000012000BD0256E010E2C6E25500ED0256EB6
:102B1000010E2D6E255009D008D02450010AD8B4DA
:102B2000F1D7030AD8B4F3D700D012000BD0026E4D
:102B3000010E2C6E02500ED0026E010E2D6E025050
:102B400009D008D00150010AD8B4F1D7030AD8B48B
:102B5000F3D700D012000CD000F000F000F000F02D
:102B600000F000F000F000F000F000F0010600D0EE
:102B7000016601D001D0F0D700D01200B2EC13F002
:102B800089EC0CF0266E010E246E265081EC15F0B7
:102B9000D58EF284F28E00F0FED7FDD7E5EF01F07E
:102BA000949C948E080E656E040ED46EE10EAF6E8A
:102BB000040EAC6E800EAB6E240EAC6E900EAB6E3F
:102BC000120007D000F000F000F00106D8A00206C5
:102BD00000D002500110D8A401D001D0F3D700D00A
:102BE000120007D000F000F000F00106D8A00206A5
:102BF00000D002500110D8A401D001D0F3D700D0EA
:102C0000120001C090FF000E996E919091969194E0
:102C100000F000F091849186120001C090FF000E38
:102C2000996E91809196919400F000F09184918634
:102C30001200346A336A326A316A0001BEEF15F05D
:062C4000FFD71200120094
:020000040020DA
:08000000FFFFFFFFFFFFFFFF00
:020000040030CA
:0E00000015136100308081FFFFC0FFE0FF405C
:00000001FF
