:04000000E5EF01F037
:10000800FACF2DF0FBCF2EF0E9CF2FF0EACF30F06A
:10001800E1CF31F0E2CF32F0D9CF33F0DACF34F09C
:10002800F3CF35F0F4CF36F0F6CF37F0F7CF38F01E
:10003800F8CF39F0F5CF3AF0D8CF61F000010001E0
:10004800606FE0CF62F0EACF63F0E9CF64F0F2AA24
:1000580001D001D081D1F2A401D001D07DD100011D
:1000680000016505D8A401D001D009D01B0EFC6E93
:100078002C6E000E00010001656F2C5000D06FC07F
:10008800EAFF000EE96E60C0EEFF61C0EEFF62C0DD
:10009800EEFFFCCFEEFF63C0EEFF64C0EEFFE2CFE1
:1000A800EEFFE1CFEEFFDACFEEFFD9CFEEFFF4CFD0
:1000B800EEFFF3CFEEFFF8CFEEFFF7CFEEFFF6CF70
:1000C800EEFFF5CFEEFFFBCFEEFFFACFEEFF000E0F
:1000D800E26E000EE16EE6CFEEFFE6CFEEFFE6CF72
:1000E800EEFFE6CFEEFFE6CFEEFFE6CFEEFFE6CF80
:1000F800EEFFE6CFEEFFE6CFEEFFE6CFEEFFE6CF70
:10010800EEFFE6CFEEFFE6CFEEFFE6CFEEFFE6CF5F
:10011800EEFFE6CFEEFFE6CFEEFFE6CFEEFFE6CF4F
:10012800EEFFE6CFEEFFE6CFEEFFE6CFEEFFE6CF3F
:10013800EEFFE6CFEEFFE6CFEEFFE6CFEEFFE6CF2F
:10014800EEFFE6CFEEFFE6CFEEFFE6CFEEFFE6CF1F
:10015800EEFFE6CFEEFFE6CFEEFFE6CFEEFFE6CF0F
:10016800EEFFE6CFEEFFE6CFEEFFE6CFEEFFE6CFFF
:10017800EEFFE6CFEEFFE6CFEEFFE6CFEEFFE6CFEF
:10018800EEFFE6CFEEFFE6CFEEFFE6CFEEFFE6CFDF
:10019800EEFFE6CFEEFF8A0ED76ECF0ED66EF29444
:1001A800010E00010001812500010001816F000E90
:1001B8000001000182210001826F000E0001000190
:1001C80083210001836F000E0001000184210001DA
:1001D800846F00010001714B722B00010001702B2C
:1001E800000100017051060AD8A401D001D007D03F
:1001F8002C6E000E00010001706F2C5000D0000121
:1002080000017051010D0001690EF324D96E00013F
:10021800000EF420DA6EDF50000100016F6F000E4F
:10022800E26E000EE16E6FC0EAFF120EE96EEECFCD
:10023800E6FFEECFE6FFEECFE6FFEECFE6FFEECF2E
:10024800E6FFEECFE6FFEECFE6FFEECFE6FFEECF1E
:10025800E6FFEECFE6FFEECFE6FFEECFE6FFEECF0E
:10026800E6FFEECFE6FFEECFE6FFEECFE6FFEECFFE
:10027800E6FFEECFE6FFEECFE6FFEECFE6FFEECFEE
:10028800E6FFEECFE6FFEECFE6FFEECFE6FFEECFDE
:10029800E6FFEECFE6FFEECFE6FFEECFE6FFEECFCE
:1002A800E6FFEECFE6FFEECFE6FFEECFE6FFEECFBE
:1002B800E6FFEECFE6FFEECFE6FFEECFE6FFEECFAE
:1002C800E6FFEECFE6FFEECFE6FFEECFE6FFEECF9E
:1002D800E6FFEECFE6FFEECFE6FFEECFE6FFEECF8E
:1002E800E6FFEECFE6FFEECFE6FFEECFE6FF6FC00C
:1002F800EAFF000EE96EEECF60F0EECF61F0EECFD0
:1003080062F0EECFFCFFEECF63F0EECF64F0EECFFD
:10031800E2FFEECFE1FFEECFDAFFEECFD9FFEECF6F
:10032800F4FFEECFF3FFEECFF8FFEECFF7FFEECFFF
:10033800F6FFEECFF5FFEECFFBFFEECFFAFF64C07E
:10034800E9FF63C0EAFF62C0E0FF000100016051FD
:1003580061C0D8FF100000D064C0E9FF63C0EAFFA5
:1003680062C0E0FF00010001605161C0D8FF1000C9
:1003780069EC91F0C9EC87F000EC80F016EC87F09E
:1003880076EC8AF06BEC91F03AC0F5FF39C0F8FFD3
:1003980038C0F7FF37C0F6FF36C0F4FF35C0F3FFAB
:1003A80034C0DAFF33C0D9FF32C0E2FF31C0E1FF09
:1003B80030C0EAFF2FC0E9FF2EC0FBFF2DC0FAFFB7
:0603C800110033EF91F07B
:10FEF0007761726E696E6720796F757220616E6FBF
:10FF0000726D616C207573650074696D6520756E26
:10FF10007573656420616E7320706F776572206FF2
:10FF20006E0020415543554E2020202020202020C7
:10FF300020202020202000646F776E6C6F61642089
:10FF4000202020207C00736F6369616C20646174E1
:10FF50006120207C006D61696E2073637265656E3F
:10FF600020207C002D2D2D2D2D2D2D2D2D2D2D2DB9
:10FF70002D0054656D702E204875696C653A0073CC
:10FF80006F6369616C20646174617300582D4A6FFE
:10FF900079737469636B3A00592D4A6F7973746988
:10FFA000636B3A0054656D702E204561753A0042CE
:10FFB000617474657269653A00796F75722074694D
:10FFC0006D6500566974657373653A004D617263BF
:10FFD00068653A0042616467653A00536965676520
:10FFE0003A0028282129290043686F633A002079C4
:10FFF0003D004E2000783D00415200415600000077
:020000040001F9
:10000000F29E39EC8FF05BEC86F09AEC8FF06AECA4
:100010008FF002EC91F0126E020E016E1250DAECCB
:1000200090F0126E010E00010001806F1250520E0E
:10003000AD6EF28E8B948B928F90126E000E00013B
:100040000001736F1250126E780E00010001746F80
:100050001250126E000E000100017F6F1250F0EC82
:100060008AF0126E000E00010001666F1250F8D384
:10007000F7D3000100019005D8A401D001D004D02D
:100080008B848B928F9000D0126E000E0B6E1250EC
:10009000136E000E0C6E135000EC8EF0FF0E0B6E04
:1000A000CC0E0A6ECAEC8FF081B001D001D007D01F
:1000B000FF0E0B6EFB0E0A6ECAEC8FF013D081B2EE
:1000C00001D001D007D0FF0E0B6EF80E0A6ECAECFD
:1000D0008FF008D0FF0E0B6EF20E0A6ECAEC8FF096
:1000E00001D000D0126E010E0B6E1250136E000E76
:1000F0000C6E135000EC8EF0FF0E0B6EDB0E0A6ED2
:10010000CAEC8FF081B401D001D007D0126E310E4D
:100110000A6E1250F6EC8FF007D0126E300E0A6E97
:100120001250F6EC8FF000D0126E020E0B6E1250D1
:10013000136E000E0C6E135000EC8EF0FF0E0B6E63
:10014000A40E0A6ECAEC8FF0126E020E016E1250EF
:100150001FEC90F00D6E3FEC8DF0126E030E0B6EE7
:100160001250136E000E0C6E135000EC8EF0FF0E4A
:100170000B6E720E0A6ECAEC8FF0126E030E016ED9
:1001800012501FEC90F00D6E3FEC8DF0126E040ECD
:100190000B6E1250136E000E0C6E135000EC8EF0AE
:1001A000FF0E0B6EE80E0A6ECAEC8FF081B601D01E
:1001B00001D007D0126E310E0A6E1250F6EC8FF09D
:1001C00007D0126E300E0A6E1250F6EC8FF000D08F
:1001D000126E050E0B6E1250136E000E0C6E135045
:1001E00000EC8EF0FF0E0B6EC30E0A6ECAEC8FF0A1
:1001F00084B001D001D004D000010001732B00D0E5
:1002000084B201D001D004D000010001730700D0F6
:1002100073C00DF03FEC8DF0126E060E0B6E125097
:10022000136E000E0C6E135000EC8EF0FF0E0B6E72
:10023000AF0E0A6ECAEC8FF084B401D001D004D0A6
:1002400000010001742B00D084B601D001D004D08D
:1002500000010001740700D074C00DF03FEC8DF078
:10026000126E070E0B6E1250136E000E0C6E1350B2
:1002700000EC8EF084B801D001D007D0FF0E0B6ED9
:10028000E20E0A6ECAEC8FF007D0FF0E0B6E310E35
:100290000A6ECAEC8FF000D0126E080E0B6E125070
:1002A000136E000E0C6E135000EC8EF0FF0E0B6EF2
:1002B000D40E0A6ECAEC8FF0000100017F6701D0F6
:1002C00001D007D0FF0E0B6E220E0A6ECAEC8FF023
:1002D0001FD0126E000E146E125010D01450010D6B
:1002E0000001750EF324D96E0001000EF420DA6EC1
:1002F000DF500D6E3FEC8DF0142A00D0000100019C
:100300007F51145CD8A001D001D0E8D701D000D033
:10031000126E090E0B6E1250136E000E0C6E1350FF
:1003200000EC8EF0FF0E0B6E8C0E0A6ECAEC8FF096
:10033000126E0A0E016E12501FEC90F00D6E3FEC23
:100340008DF0126E0A0E0B6E1250136E000E0C6EB4
:10035000135000EC8EF0FF0E0B6E980E0A6ECAEC76
:100360008FF0126E0B0E016E12501FEC90F00D6E9E
:100370003FEC8DF0126E050E0B6E1250136E140EC4
:100380000C6E135000EC8EF08BC00DF03FEC8DF036
:10039000126E060E0B6E1250136E140E0C6E13506E
:1003A00000EC8EF088C00DF03FEC8DF0126E070E61
:1003B0000B6E1250136E140E0C6E135000EC8EF078
:1003C0008FC00DF03FEC8DF0000100016605D8A450
:1003D00001D001D025D0126E000E0B6E1250136E9C
:1003E000140E0C6E135000EC8EF0FF0E0B6EF50E1B
:1003F0000A6ECAEC8FF067C00DF03FEC8DF0FF0E77
:100400000B6EEE0E0A6ECAEC8FF068C00DF03FEC7A
:100410008DF067C00BF068C00CF0DEEC8BF002D002
:1004200000F000D0126E0D0E0B6E1250136E000E07
:100430000C6E135000EC8EF0FF0E0B6E640E0A6E05
:10044000CAEC8FF0126E0E0E0B6E1250136E000E71
:100450000C6E135000EC8EF0FF0E0B6E460E0A6E03
:10046000CAEC8FF0126E0F0E0B6E1250136E0D0E43
:100470000C6E135000EC8EF0FF0E0B6E440E0A6EE5
:10048000CAEC8FF0126E100E0B6E1250136E0D0E22
:100490000C6E135000EC8EF0000100016605D8A42C
:1004A00001D001D016D0500E00010001676101D0CB
:1004B00001D00FD0600E00010001686501D001D0AD
:1004C00008D09AEC8FF0126E010E406E125001D0DF
:1004D00000D0000100016605D8A401D001D030D0C1
:1004E000CA0E00010001676501D001D029D0D10EEC
:1004F00000010001676101D001D022D0700E00011F
:100500000001686501D001D009D0790E0001000119
:10051000686101D001D002D08B8400D0780E000138
:100520000001686501D001D00BD07F0E00010001F1
:10053000686101D001D004D08B9402D001D000D0EA
:10054000000100016605D8A401D001D030D0D60E3C
:1005500000010001676501D001D029D0DD0E000146
:100560000001676101D001D022D0700E00010001AE
:10057000686501D001D009D0790E000100016861E1
:1005800001D001D002D08B8200D0780E0001000192
:10059000686501D001D00BD07F0E000100016861B9
:1005A00001D001D004D08B9202D001D000D0000144
:1005B00000016605D8A401D001D052D1E20E00019D
:1005C0000001676501D001D04BD1E90E00010001A7
:1005D000676101D001D044D1700E0001000168654F
:1005E00001D001D009D0790E00010001686101D06D
:1005F00001D002D08F8000D0780E00010001686524
:1006000001D001D02DD17F0E00010001686101D021
:1006100001D026D18F9024D123D122D121D1126EA5
:10062000000E0B6E1250136E000E0C6E135000EC89
:100630008EF0FF0E0B6E7F0E0A6ECAEC8FF0126EFC
:10064000020E0B6E1250136E000E0C6E135000EC67
:100650008EF0FF0E0B6E090E0A6ECAEC8FF0126E52
:10066000030E0B6E1250136E000E0C6E135000EC46
:100670008EF0126E000E0A6E1250136E010E0B6E8B
:10068000135042EC91F00D6E3FEC8DF0126E040EA3
:100690000B6E1250136E000E0C6E135000EC8EF0A9
:1006A000FF0E0B6EB90E0A6ECAEC8FF0126E050EBD
:1006B0000B6E1250136E000E0C6E135000EC8EF089
:1006C000C3EC8DF00A6E38EC8EF0126E12280B6EB1
:1006D00042EC91F00D6E3FEC8DF0126E060E0B6E3B
:1006E0001250136E000E0C6E135000EC8EF0FE0EC6
:1006F0000B6EF00E0A6ECAEC8FF0126E070E0B6EC8
:100700001250136E000E0C6E135000EC8EF0C3EC02
:100710008DF00A6E38EC8EF0040F0B6E42EC91F007
:100720000D6E3FEC8DF0126E0D0E0B6E1250136EAF
:10073000000E0C6E135000EC8EF0FF0E0B6E640E6C
:100740000A6ECAEC8FF0126E0E0E0B6E1250136E04
:10075000000E0C6E135000EC8EF0FF0E0B6E550E5B
:100760000A6ECAEC8FF0126E0F0E0B6E1250136EE3
:100770000D0E0C6E135000EC8EF0FF0E0B6E440E3F
:100780000A6ECAEC8FF0126E0D0E0B6E1250136EC5
:100790000E0E0C6E135000EC8EF0FF0E0B6E640EFE
:1007A0000A6ECAEC8FF0126E0E0E0B6E1250136EA4
:1007B0000E0E0C6E135000EC8EF0FF0E0B6E370E0B
:1007C0000A6ECAEC8FF0126E0F0E0B6E1250136E83
:1007D0001B0E0C6E135000EC8EF0FF0E0B6E440ED1
:1007E0000A6ECAEC8FF0000100016605D8A401D0A2
:1007F00001D036D0500E00010001676101D001D058
:1008000010D0600E00010001686501D001D009D050
:100810009AEC8FF0126E000E406E1250F0EC8AF0DF
:1008200000D0600E00010001686501D001D018D031
:10083000640E00010001676101D001D011D0320EB9
:1008400000010001676501D001D00AD0126E010ECF
:1008500000010001926F125003D002D001D000D0ED
:100860004050000AD8B405D4010AD8B4D8D6F8D775
:10087000F7D7F6D7120000019E6F000E00010001AD
:100880009B6F00019E5100019F6F000E000100014F
:100890009C6F00019F510001A06F000E000100013C
:1008A0009D6F0001A0510001B0EC90F000019E6F1F
:1008B000010E00010001656F00019E51000E000154
:1008C0000001816F000E0001826F000E0001836F36
:1008D000000E0001846F00019E6F000E00010001F8
:1008E000886F00019E5100019E6F000E0001000103
:1008F0008F6F00019E51F28EF28C000E7F6E7F9EF4
:100900007F9CA98800019E6F010E00010001696FA4
:1009100000019E5100019E6F020E000100016A6FEE
:1009200000019E5100019E6F030E000100016B6FDC
:1009300000019E5100019E6F040E000100016C6FCA
:1009400000019E5100019E6F050E000100016D6FB8
:1009500000019E5100019E6F060E000100016E6FA6
:1009600000019E5100019E6F050E00010001706F95
:1009700000019E51000100017051010D0001690E3E
:10098000F324D96E0001000EF420DA6EDF5000016E
:1009900000016F6FFCCFA1F0020EFC6ED20E0001C1
:1009A0000001936F220E00010001946F010E0001FF
:1009B0000001956F93C098F094C099F095C09AF09B
:1009C0000001000E00010001976F0001980E000168
:1009D000966F96C0D9FF97C0DAFFDF50FD6E000119
:1009E0000001964B972B96C0D9FF97C0DAFFDF50D6
:1009F000FE6E00010001964B972B96C0D9FF97C061
:100A0000DAFFDF50FF6E070EFC6E920E0001000150
:100A1000936F0F0E00010001946F010E00010001A1
:100A2000956F93C098F094C099F095C09AF000012A
:100A3000000E00010001976F0001980E0001966FF3
:100A400096C0D9FF97C0DAFFDF50FD6E00010001AC
:100A5000964B972B96C0D9FF97C0DAFFDF50FE6EFA
:100A600000010001964B972B96C0D9FF97C0DAFF83
:100A7000DF50FF6E0C0EFC6E000E00010001936F44
:100A8000000E00010001946F010E00010001956F3E
:100A900093C098F094C099F095C09AF00001000EB0
:100AA00000010001976F0001980E0001966F96C03B
:100AB000D9FF97C0DAFFDF50FD6E00010001964BB1
:100AC000972B96C0D9FF97C0DAFFDF50FE6E00016A
:100AD0000001964B972B96C0D9FF97C0DAFFDF50E5
:100AE000FF6E110EFC6E2C0E00010001936F0E0EB6
:100AF00000010001946F010E00010001956F93C089
:100B000098F094C099F095C09AF00001000E000191
:100B10000001976F0001980E0001966F96C0D9FFF3
:100B200097C0DAFFDF50FD6E00010001964B972B56
:100B300096C0D9FF97C0DAFFDF50FE6E00010001BA
:100B4000964B972B96C0D9FF97C0DAFFDF50FF6E08
:100B5000160EFC6EEC0E00010001936F140E0001E6
:100B60000001946F010E00010001956F93C098F091
:100B700094C099F095C09AF00001000E00010001A8
:100B8000976F0001980E0001966F96C0D9FF97C02D
:100B9000DAFFDF50FD6E00010001964B972B96C0E7
:100BA000D9FF97C0DAFFDF50FE6E00010001964BBF
:100BB000972B96C0D9FF97C0DAFFDF50FF6E1B0E50
:100BC000FC6ED60E00010001936F220E00010001A1
:100BD000946F010E00010001956F93C098F094C0CE
:100BE00099F095C09AF00001000E00010001976F86
:100BF0000001980E0001966F96C0D9FF97C0DAFFEA
:100C0000DF50FD6E00010001964B972B96C0D9FF77
:100C100097C0DAFFDF50FE6E00010001964B972B64
:100C200096C0D9FF97C0DAFFDF50FF6EA1C0FCFF6E
:100C300000019E6F020E01010101036F00019E5130
:100C400000019E6F070E02010201036F00019E5119
:100C500000019E6F0C0E03010301036F00019E5102
:100C600000019E6F110E04010401036F00019E51EB
:100C700000019E6F160E05010501036F00019E51D4
:100C800000019E6F1B0E06010601036F00019E51BD
:100C9000000E00010001726F000E0001716F010E65
:100CA000D56EF28A00019E6F000E00010001876F71
:100CB00000019E5112000B6E000E0E6E0B50000EC6
:100CC000906E1F0E916E000E996E000E9A6E919AA4
:100CD000918C91980B6E040E016E0B50EFEC90F01E
:100CE00091880B6E0C0E016E0B50EFEC90F017D04C
:100CF0000E2A0B6E0C0E016E0B50EFEC90F0C80E2E
:100D00000E6401D001D00BD08B828F808B94F29E29
:100D1000FFD70B6E000E0E6E0B5001D000D042ECD0
:100D200090F00009D8B401D001D0E2D700D00B6E0A
:100D3000270E066E0B500C6E0F0E076E0C500D6ECC
:100D4000210E086E0D50FBEC8CF00B6E000E066E43
:100D50000B500C6E000E076E0C500D6E220E086EBE
:100D60000D50FBEC8CF00B6E000E066E0B500C6EF3
:100D7000000E076E0C500D6E240E086E0D50FBEC2D
:100D80008CF00B6E000E066E0B500C6E7B0E076E19
:100D90000C500D6E400E086E0D50FBEC8CF00B6E7F
:100DA000280E066E0B500C6E000E076E0C500D6E6A
:100DB000410E086E0D50FBEC8CF00B6E000E066EB3
:100DC0000B500C6E800E076E0C500D6E420E086EAE
:100DD0000D50FBEC8CF00B6E280E066E0B500C6E5B
:100DE000000E076E0C500D6E430E086E0D50FBEC9E
:100DF0008CF00B6E800E066E0B5061EC90F00B6E5B
:100E00009C0E066E0B5061EC90F00B6EA00E066E01
:100E10000B5061EC90F00B6E020E066E0B500C6ED8
:100E2000700E076E0C50D7EC8EF012000001000E11
:100E3000046E0001750E036EFAEC89F02B6E2B50D8
:100E4000D8B401D001D010D00A0E2B6001D001D04F
:100E500003D02BC07FF00FD0286E000E00010001E0
:100E60007F6F285008D007D0286E000E00010001C7
:100E70007F6F285000D000010001876701D001D0AA
:100E800010D0000100017F51D8B401D001D009D0A9
:100E9000286E000E00010001916F285081C088F07B
:100EA00000D0000100018705D8A401D001D01ED0D8
:100EB000000100017F6701D001D018D0F5EC88F067
:100EC000286E860E0A6E2850296E700E0B6E295001
:100ED00042EC91F02A6E2A50000100018B6F000154
:100EE0008C6B00018D6B00018E6B00D00001000146
:100EF0008705D8A401D001D013D081B401D001D08E
:100F00000FD000010001906701D001D009D081C04D
:100F100088F0286E010E00010001906F285000D06B
:100F2000000100018705D8A401D001D016D081A40A
:100F300001D001D012D0000100019005D8A401D049
:100F400001D00BD081C088F0286E000E0001000196
:100F5000906F285071EC88F000D000010001876785
:100F600001D001D015D0000100017F6701D001D070
:100F70000FD000010001916701D001D009D081C0DC
:100F800088F0286E010E00010001916F285000D0FA
:100F90001200096E000E00010001666F095000D0BA
:100FA0008F868F980B0E026EB80E016E13EC91F0C7
:100FB000160EC06E010EC26E030EC26E00D0C2B21B
:100FC00001D001D0FCD7C4CF0EF0C3CF0FF00F502B
:100FD0000F0BD8B401D001D009D0096E000E0E6EEF
:100FE0000950096E000E0F6E095000D0090E0E64F4
:100FF00001D001D06CD08F968F880B0E026EB80E88
:10100000016E13EC91F0160EC06E050EC26E070E47
:10101000C26E00D0C2B201D001D0FCD7C4CF10F054
:10102000C3CF11F011500F0BD8B401D001D009D0AB
:10103000096E000E106E0950096E000E116E0950F7
:1010400000D0130E106401D001D039D00E500B6EB9
:101050000F500A6E10500D6E11500C6EB20E0A2415
:101060000A6EF30E0B200B6E9C0E0C240C6EE60E1B
:101070000D200D6E0AC001F00BC002F0000E046ED0
:10108000F60E036E70EC8EF0015000010001676FE8
:101090000CC001F00DC002F0010E046E990E036E3B
:1010A00070EC8EF0015000087F0F00010001686FA6
:1010B000096E010E00010001666F095071D7096EBB
:1010C000000E00010001666F09506AD769D7096EEA
:1010D000000E00010001666F095062D761D760D72A
:1010E000120038EC8EF0246EC3EC8DF0256E0001FA
:1010F000000188511C6E1D6A1C1E1D1E1C4A1D2AE3
:101100000001000181511C24226E00010001825166
:101110001D20236E22C00DF023C00EF00F6A106A4E
:10112000400E116E7E0E126E050E136E000E146EC2
:1011300078EC89F00DC026F00EC027F027501F6E06
:1011400026C01EF0400E056E7E0E066E050E076E62
:10115000000E086E26C001F027C002F0036A046A80
:1011600008EC8FF0011E021E031E041E012A000E51
:10117000022203220422225001240D6E2350022059
:101180000E6E000E03200F6E000E0420106E3C0E3B
:10119000116E000E126E000E136E000E146E78ECBF
:1011A00089F00D50206E20C00DF025C00EF02450A7
:1011B000060F0F6E1C6E010E106E1C5069EC8BF04A
:1011C000216E1C6E000E216E1C501F5021240D6ECE
:1011D00025C00EF02450040F0F6E1C6E000E106E12
:1011E0001C5069EC8BF0216E120038EC8EF0246EEE
:1011F000C3EC8DF0256E0001000188511C6E1D6A44
:101200001C1E1D1E1C4A1D2A0001000181511C24A8
:10121000226E0001000182511D20236E22C00DF0BC
:1012200023C00EF00F6A106A400E116E7E0E126E11
:10123000050E136E000E146E78EC89F00DC026F0CA
:101240000EC027F027501F6E26C01EF0400E056E00
:101250007E0E066E050E076E000E086E26C001F0AB
:1012600027C002F0036A046A08EC8FF0011E021E18
:10127000031E041E012A000E022203220422225011
:1012800001240D6E235002200E6E000E03200F6EFF
:10129000000E0420106E3C0E116E000E126E000E39
:1012A000136E000E146E78EC89F00D50206E20C085
:1012B0000DF025C00EF02450020F0F6E1C6E010EB3
:1012C000106E1C5069EC8BF0216E1C6E000E216EAE
:1012D0001C501F5021240D6E25C00EF024C00FF0AD
:1012E0001C6E000E106E1C5069EC8BF0216E12000B
:1012F000156E000E176E155014AE01D001D00DD032
:10130000141E131E121E116C000E12221322142220
:10131000156E010E176E155000D010AE01D001D021
:101320000BD0101E0F1E0E1E0D6C000E0E220F2273
:101330001022010E171A00D0000E186E000E196E42
:10134000000E1A6E000E1B6E1450111012101310A6
:10135000D8B401D001D036D0156E010E166E1550DE
:1013600007D0D8901136123613361436162A00D00C
:1013700014AE01D001D0F5D701D000D0D8901836E6
:1013800019361A361B3611500D5C12500E58135078
:101390000F5814501058D8A001D001D00AD01150C5
:1013A0000D5E12500E5A13500F5A1450105A1880D6
:1013B00000D0D8901432133212321132162EDED7EA
:1013C00001D000D01750D8B401D001D009D01B1ED5
:1013D0001A1E191E186C000E19221A221B2200D088
:1013E00018C00DF019C00EF01AC00FF01BC010F09D
:1013F00000D0120095828C968C94000E026E640EC2
:10140000016E23EC91F08C86056E000E066E055081
:1014100000D0030E026EE80E016E23EC91F0062A56
:1014200083A001D001D005D0056E410E066E055097
:1014300000D0400E066401D001D0EBD783A001D0CC
:1014400001D050D0056E000E076E0550056E000EDF
:10145000086E0550056E000E096E0550056E000EF3
:10146000086E0550070E086401D001D002D026D0C6
:1014700025D083A201D001D003D009500109096E03
:1014800009500924096E000E026E640E016E23ECF1
:1014900091F08C84010E026EF40E016E23EC91F03B
:1014A0008C94010E026E900E016E23EC91F0082ACE
:1014B000070E086401D001D0DCD700D00750010D21
:1014C000F3500324D96EF4500420DA6E09C0DFFF14
:1014D000072A83B001D001D0BDD700D0075005D076
:1014E00004D003D0000E01D000D012000001000192
:1014F0009205D8A401D001D0F9D7000E126E000ECB
:10150000116E1250800A7C0F000ED8B4115CD8A066
:1015100001D001D002D0EAD7E9D712500D6E11C028
:101520000EF000D09EA801D001D0FCD700D00DC095
:101530000AF00EC00BF042EC91F0AD6E00D0ACA200
:1015400001D001D0FCD700D01128030ED8B4121856
:10155000D8A401D001D001D000D0114A122A1250D3
:10156000800A7C0F000ED8B4115CD8A001D001D045
:10157000D4D7BCD7BBD7BAD7B9D7000E106E000EE0
:101580000F6EE80E0F5CFD0E1058D8A001D001D0F0
:1015900002D00CD00BD00F4A102AE80E0F5CFD0EC3
:1015A0001058D8A001D001D0F6D700D0000E106E90
:1015B000000E0F6EE80E0F5CFD0E1058D8A001D083
:1015C00001D002D00CD00BD00F4A102AE80E0F5CCD
:1015D000FD0E1058D8A001D001D0F6D700D01200CF
:1015E000106E0D0E0B6E1050116E220E0C6E1150FF
:1015F00000EC8EF0106E520E0A6E1050F6EC8FF06A
:10160000106E200E0A6E1050F6EC8FF0106E560E13
:101610000A6E1050F6EC8FF0106E200E0A6E10500D
:10162000F6EC8FF0106E420E0A6E1050F6EC8FF052
:10163000106E0E0E0B6E1050116E220E0C6E1150AD
:1016400000EC8EF0106E300E0A6E1050F6EC8FF03B
:10165000106E200E0A6E1050F6EC8FF0106E300EE9
:101660000A6E1050F6EC8FF0106E200E0A6E1050BD
:10167000F6EC8FF0106E300E0A6E1050F6EC8FF014
:10168000106E0F0E0B6E1050116E220E0C6E11505C
:1016900000EC8EF0106E310E0A6E1050F6EC8FF0EA
:1016A000106E200E0A6E1050F6EC8FF0106E310E98
:1016B0000A6E1050F6EC8FF0106E200E0A6E10506D
:1016C000F6EC8FF0106E310E0A6E1050F6EC8FF0C3
:1016D0001200116E000E146E1150000E176E000EE7
:1016E000166E116E000E156E11505DD00EC00AF010
:1016F0000FC00BF042EC91F0156E15500D24166ED4
:10170000176A1736000E165C010E1758D8A001D0C4
:1017100001D00DD0000E136E010E126E16C001F036
:101720000EC002F00FC003F0C5EC90F044D016C01C
:1017300001F00EC002F00FC003F0C5EC90F03BD0FA
:101740003AD00EC00AF00FC00BF042EC91F0156ECB
:1017500015500D24166E176A17363C0E165C000ED7
:101760001758D8A001D001D00ED0116E010E146E02
:1017700011501650C40F016E0EC002F00FC003F0DE
:10178000C5EC90F018D016C001F00EC002F00FC0EA
:1017900003F0C5EC90F00FD00ED0116E000E146E59
:1017A000115009D008D01050000AD8B49FD7010AB0
:1017B000D8B4C7D7F2D7145000D012000BC001F034
:1017C000026A000E046E060E036E49EC8CF00C509B
:1017D000280D0150F3240E6E0250F4200F6E0EC03F
:1017E00006F00F50076E0D6E240E086E0D50FBECC8
:1017F0008CF02CD00D6EFD0E066E0D5061EC90F04D
:1018000047D00D6EFC0E066E0D5061EC90F040D08E
:101810000D6EFB0E066E0D5061EC90F039D00D6E22
:10182000FA0E066E0D5061EC90F032D00D6EF90E8E
:10183000066E0D5061EC90F02BD00D6EF80E066E1A
:101840000D5061EC90F024D023D022D00BC001F0D9
:10185000026A000E046E060E036EA7EC8CF00250B6
:10186000000AD8B401D014D00150000AD8B4C2D7AD
:10187000010AD8B4C6D7030AD8B4CAD7010AD8B463
:10188000CED7070AD8B4D2D7010AD8B4D6D700D059
:101890001200056E000E076E055004AE01D001D097
:1018A00009D0036C041ED8B0042A056E010E076E21
:1018B000055000D002AE01D001D007D0016C021E4D
:1018C000D8B0022A010E071A00D0000E096E000ED1
:1018D000086E04500310D8B401D001D028D0056E92
:1018E000010E066E055005D0D89003360436062A40
:1018F00000D004AE01D001D0F7D701D000D0D890ED
:10190000083609360350015C04500258D8A001D0B3
:1019100001D006D00350015E0450025A088000D066
:10192000D89004320332062EEAD701D000D00750F7
:10193000D8B401D001D005D0086C091ED8B0092A4E
:1019400000D008C001F009C002F000D01200056EFE
:10195000000E076E055002AE01D001D009D0016C17
:10196000021ED8B0022A056E010E076E055000D087
:1019700004AE01D001D005D0036C041ED8B0042AF7
:1019800000D004500310D8B401D001D024D0056E8B
:10199000010E066E055005D0D89003360436062A8F
:1019A00000D004AE01D001D0F7D701D000D0035051
:1019B000015C04500258D8A001D001D005D00350DA
:1019C000015E0450025A00D0D89004320332062E31
:1019D000EED701D000D00750D8B401D001D005D047
:1019E000016C021ED8B0022A00D001C001F002C072
:1019F00002F000D01200096E000E0A6E095082EC4F
:101A00008DF0096E0904D8A401D001D035D0096E3B
:101A10000C0E016E0950EFEC90F006C001F051EC95
:101A200091F082EC8DF0096E0904D8A401D001D0A8
:101A300023D0096E0C0E016E0950EFEC90F007C038
:101A400001F051EC91F082EC8DF0096E0904D8A4FC
:101A500001D001D011D0096E0C0E016E0950EFECCF
:101A600090F008C001F05DEC91F0096E010E0A6E75
:101A7000095002D001D000D00A5000D012000D3819
:101A80000F0B0F6E090E0F6401D001D004D00F5060
:101A9000170F0F6E07D00F50100F0F6E03D002D02C
:101AA00000F000D00FC006F00E6EC00E076E0E5094
:101AB000D7EC8EF00009D8B401D001D0F1D700D016
:101AC0000D500F0B0F6E090E0F6401D001D004D022
:101AD0000F50170F0F6E07D00F50100F0F6E03D05F
:101AE00002D000F000D00FC006F00E6EC00E076EE0
:101AF0000E50D7EC8EF00009D8B401D001D0F1D748
:101B000000D01200026E000E036E0250026E020E32
:101B1000056E02502ED0996891809196919200F0B6
:101B200087CF04F0918291860450030B046E045019
:101B3000030AD8B401D001D016D0032A026E0C0ECD
:101B4000016E0250EFEC90F0F90E036401D001D069
:101B500010D0F29E8B948B828F80026E000E056EE9
:101B6000025007D006D0026E010E056E025001D061
:101B700000D00550020AD8B401D001D0CCD700D093
:101B8000055000D01200000E086E000E076E016EA8
:101B9000000E096E0150010E096401D001D002D07F
:101BA0002CD02BD009C001F00950026E036A080E38
:101BB0000226000E03220001750E0224D96E0001D8
:101BC000000E0320DA6EDF50046E04500724056E09
:101BD000000E0820066E012A03D0D890053606367E
:101BE000012EFBD705C007F006C008F0092A010E38
:101BF000096401D001D0D6D700D0075000D0120020
:101C00007B0E0F6E000E0E6E0F0E0B6401D001D016
:101C100005D00D6E000E0B6E0D5000D0270E0C641B
:101C200001D001D005D00D6E000E0C6E0D5000D00D
:101C30000B50280D0C50F326000EF4220E50F32406
:101C40000E6E0F50F4200F6E02D000F000D00EC0C8
:101C500006F00F50076E0D6E240E086E0D50FBEC53
:101C60008CF00009D8B401D001D0EFD700D0120019
:101C7000000E066E000E056E016E000E076E01501E
:101C8000070E076401D001D002D027D026D007C0AC
:101C900001F00750010D0001750EF324D96E00010B
:101CA000000EF420DA6EDF50026E02500524036E3F
:101CB000000E0620046E012A03D0D89003360436A5
:101CC000012EFBD703C005F004C006F0072A070E5B
:101CD000076401D001D0DBD700D0055000D012003E
:101CE000000E076E000E066E04500310D8B401D02B
:101CF00001D027D0056E010E086E055005D0D89092
:101D000003360436082A00D004AE01D001D0F7D73C
:101D100001D000D0D890063607360350015C04503D
:101D20000258D8A001D001D006D00350015E045063
:101D3000025A068000D0D89004320332082EEAD727
:101D400000D006C001F007C002F01200A00E0F0183
:101D50000F01266F000E0F010F01256F000E0F01FE
:101D60000F01246F000E0F010F01236F0F010F01F0
:101D700025810F010F0125830F010F0125850F011B
:101D80000F0125870F010F0124850F010F01248703
:101D90008B848B828F809494949298909896989844
:101DA00095949596F19E0F010F01538D1200086EC8
:101DB000000E096E085082EC8DF0086E0804D8A45D
:101DC00001D001D022D0086E0C0E016E0850EFEC4D
:101DD00090F006C001F051EC91F082EC8DF0086EAD
:101DE0000804D8A401D001D010D0086E0C0E016EEA
:101DF0000850EFEC90F007C001F05DEC91F0086E38
:101E0000010E096E085001D000D0095000D0120018
:101E1000000E096E000E0A6E000E0B6E000E0C6EA8
:101E200000D001A001D001D009D0055009260650EC
:101E30000A2207500B2208500C2200D0D8900536F9
:101E4000063607360836D8900432033202320132A1
:101E50000450011002100310D8A401D001D0E1D722
:101E600009C001F00AC002F00BC003F00CC004F07E
:101E70001200A00E0F010F01266F000E0F010F01BF
:101E8000256F000E0F010F01246F000E0F010F01CF
:101E9000236F0F010F0125810F010F0125830F0112
:101EA0000F0125850F010F0125870F010F012485E3
:101EB0000F010F0124878B848B828F8094949492DE
:101EC00098909896989895949596F19E0F010F0189
:101ED000538D12000B6E000E066E0B500C6E800EB2
:101EE000076E0C500D6E240E086E0D50FBEC8CF03E
:101EF000800E0F6E000E0E6E0F50F80A0E10D8A452
:101F000001D001D002D015D014D00B6E000E066E99
:101F10000B500C6EC00E076E0C50D7EC8EF00E4AB4
:101F20000F2A0F50F80A0E10D8A401D001D0EDD717
:101F300000D012000B6E000E066E0B500C6E000EE1
:101F4000076E0C500D6E240E086E0D50FBEC8CF0DD
:101F5000000E0F6E000E0E6E0F50800A0E10D8A4E9
:101F600001D001D002D015D014D00B6E000E066E39
:101F70000B500C6EC00E076E0C50D7EC8EF00E4A54
:101F80000F2A0F50800A0E10D8A401D001D0EDD72F
:101F900000D012001CD002D000F000D00AC0F6FF22
:101FA0000BC0F7FF000EF86E0800F550E00F066E4C
:101FB0000C6EC00E076E0C50D7EC8EF00009D8B432
:101FC00001D001D0E9D700D00A4A0B2A00D00AC0BC
:101FD000F6FF0BC0F7FF000EF86E0800F550000981
:101FE000D8A401D001D0DAD700D01200200E0A60A8
:101FF00001D001D005D00B6E3F0E0A6E0B5000D001
:102000009F0E0A6401D001D005D00B6E3F0E0A6E00
:102010000B5000D00A50E00F0A6E02D000F000D042
:102020000AC006F00B6EC00E076E0B50D7EC8EF098
:102030000009D8B401D001D0F1D700D01200000EB1
:10204000C16E160EC06E01501F0B016E0144E846B2
:10205000FC0B016E01500109C26EC28200D0C2B2F7
:1020600001D001D0FCD7C3A001D001D005D0026EB1
:10207000000E036E025003D0C4CF03F000D0035013
:1020800000D01200996891809196919200F000F032
:1020900000F087CF02F0918291860250030B030A71
:1020A000D8A401D001D005D0016E010E026E0150FE
:1020B00005D0016E000E026E015000D0025000D01B
:1020C0001200076E000E086E075082EC8DF0076E4E
:1020D0000704D8A401D001D010D0076E0C0E016EF9
:1020E0000750EFEC90F006C001F05DEC91F0076E48
:1020F000010E086E075001D000D012000FD0000171
:102100009C6F010E3E6E00019C5112D000019C6F2D
:10211000010E3F6E00019C510BD00AD0000100015E
:102120009B51010AD8B4EBD7030AD8B4EFD700D03B
:102130001200A6EC8EF03BEC84F00001A26F010EC1
:10214000000100019B6F0001A25100017EEC90F0A4
:10215000D58EF284F28E00F0FED7FDD7E5EF01F0C8
:102160009CC063FF9DC062FF9BC061FF7F84F29EA5
:10217000550E7E6EAA0E7E6E7F8200D07FB201D099
:1021800001D0FCD7F28E7F94120002C063FF03C01F
:1021900062FF01C061FF7F84F29E550E7E6EAA0E23
:1021A0007E6E7F8200D07FB201D001D0FCD7F28E4C
:1021B0007F9412000BD0026E010E3E6E02500ED0C4
:1021C000026E010E3F6E025009D008D00150010A84
:1021D000D8B4F1D7030AD8B4F3D700D012000CD08A
:1021E00000F000F000F000F000F000F000F000F06F
:1021F00000F000F0010600D0016601D001D0F0D758
:1022000000D01200949C948E080E656E040ED46E5D
:10221000E10EAF6E040EAC6E800EAB6E240EAC6E93
:10222000900EAB6E120007D000F000F000F0010637
:10223000D8A0020600D002500110D8A401D001D0CD
:10224000F3D700D0120007D000F000F000F0010634
:10225000D8A0020600D002500110D8A401D001D0AD
:10226000F3D700D0120000EE93F0080EEE6AE806F5
:10227000FDE1406A3F6A3E6A3D6A3C6A3B6A000192
:1022800099EF90F00AC063FF0BC062FF7F8000D01F
:102290007FB001D001D0FCD761CF0CF00C5000D042
:1022A000120001C090FF000E996E9190919691944A
:1022B00000F000F091849186120001C090FF000EA2
:1022C000996E91809196919400F000F0918491869E
:0822D0001200FFD712001200FA
:020000040020DA
:08000000FFFFFFFFFFFFFFFF00
:020000040030CA
:0E00000015136100308081FFFFC0FFE0FF405C
:00000001FF
